{
  "address": "0xCfd7c63C011E2f3467F49580caC395783aeac663",
  "abi": [
    {
      "inputs": [],
      "name": "CannotSetZeroValue",
      "type": "error"
    },
    {
      "anonymous": false,
      "inputs": [
        {
          "indexed": false,
          "internalType": "uint256",
          "name": "cursedBondPercentage",
          "type": "uint256"
        }
      ],
      "name": "SetCursedBondPercentage",
      "type": "event"
    },
    {
      "anonymous": false,
      "inputs": [
        {
          "indexed": false,
          "internalType": "uint256",
          "name": "embalmerClaimWindow",
          "type": "uint256"
        }
      ],
      "name": "SetEmbalmerClaimWindow",
      "type": "event"
    },
    {
      "anonymous": false,
      "inputs": [
        {
          "indexed": false,
          "internalType": "uint256",
          "name": "expirationThreshold",
          "type": "uint256"
        }
      ],
      "name": "SetExpirationThreshold",
      "type": "event"
    },
    {
      "anonymous": false,
      "inputs": [
        {
          "indexed": false,
          "internalType": "uint256",
          "name": "gracePeriod",
          "type": "uint256"
        }
      ],
      "name": "SetGracePeriod",
      "type": "event"
    },
    {
      "anonymous": false,
      "inputs": [
        {
          "indexed": false,
          "internalType": "uint256",
          "name": "protocolFeeBasePercentage",
          "type": "uint256"
        }
      ],
      "name": "SetProtocolFeeBasePercentage",
      "type": "event"
    },
    {
      "anonymous": false,
      "inputs": [],
      "name": "WithdrawProtocolFees",
      "type": "event"
    },
    {
      "inputs": [
        {
          "internalType": "uint256",
          "name": "cursedBondPercentage",
          "type": "uint256"
        }
      ],
      "name": "setCursedBondPercentage",
      "outputs": [],
      "stateMutability": "nonpayable",
      "type": "function"
    },
    {
      "inputs": [
        {
          "internalType": "uint256",
          "name": "embalmerClaimWindow",
          "type": "uint256"
        }
      ],
      "name": "setEmbalmerClaimWindow",
      "outputs": [],
      "stateMutability": "nonpayable",
      "type": "function"
    },
    {
      "inputs": [
        {
          "internalType": "uint256",
          "name": "expirationThreshold",
          "type": "uint256"
        }
      ],
      "name": "setExpirationThreshold",
      "outputs": [],
      "stateMutability": "nonpayable",
      "type": "function"
    },
    {
      "inputs": [
        {
          "internalType": "uint256",
          "name": "gracePeriod",
          "type": "uint256"
        }
      ],
      "name": "setGracePeriod",
      "outputs": [],
      "stateMutability": "nonpayable",
      "type": "function"
    },
    {
      "inputs": [
        {
          "internalType": "uint256",
          "name": "protocolFeeBasePercentage",
          "type": "uint256"
        }
      ],
      "name": "setProtocolFeeBasePercentage",
      "outputs": [],
      "stateMutability": "nonpayable",
      "type": "function"
    },
    {
      "inputs": [],
      "name": "withdrawProtocolFees",
      "outputs": [],
      "stateMutability": "nonpayable",
      "type": "function"
    }
  ],
  "transactionHash": "0x1c3fcb48acfc02d946700194803dcdd541e82b84fce6adcb735b91f864ab1d63",
  "args": [],
  "numDeployments": 5,
  "solcInputHash": "81ad1b682c45487f00525ea51ba5b3ac",
  "bytecode": "0x608060405234801561001057600080fd5b50610718806100206000396000f3fe608060405234801561001057600080fd5b50600436106100625760003560e01c8063274f255e146100675780636430ae6a146100835780638795cccb1461009f5780638a5b5690146100a9578063a828c479146100c5578063f2f65960146100e1575b600080fd5b610081600480360381019061007c9190610519565b6100fd565b005b61009d60048036038101906100989190610519565b610155565b005b6100a76101e7565b005b6100c360048036038101906100be9190610519565b6102e1565b005b6100df60048036038101906100da9190610519565b610339565b005b6100fb60048036038101906100f69190610519565b610391565b005b60006101076103e9565b9050610111610416565b8181600601819055507f3d58bff47ca074037a5dcd57740255670d45843115cca9c9bc442eb6d3f0ad78826040516101499190610555565b60405180910390a15050565b600061015f6103e9565b9050610169610416565b600082036101a3576040517f4a8fadb900000000000000000000000000000000000000000000000000000000815260040160405180910390fd5b8181600301819055507f4aeca9f26d25b33ee1b2c061ab4a849de97bfb592e7dfb276c9ded12d0ad56a2826040516101db9190610555565b60405180910390a15050565b60006101f16103e9565b90506101fb610416565b600081600101549050600082600101819055508160000160009054906101000a900473ffffffffffffffffffffffffffffffffffffffff1673ffffffffffffffffffffffffffffffffffffffff1663a9059cbb33836040518363ffffffff1660e01b815260040161026d9291906105b1565b6020604051808303816000875af115801561028c573d6000803e3d6000fd5b505050506040513d601f19601f820116820180604052508101906102b09190610612565b507f558eb14a73cb63759eec52b44eec0095bd8c7a232c14f47442e841e39fdff99460405160405180910390a15050565b60006102eb6103e9565b90506102f5610416565b8181600201819055507f4768bb3a79cb8de7ec3c4c950f9f76fbe4588407c214998efbf648001c858e9b8260405161032d9190610555565b60405180910390a15050565b60006103436103e9565b905061034d610416565b8181600501819055507f047ca17cdae34ccbd8db62138d05e11962458ffd86009620909ba6ad606282ad826040516103859190610555565b60405180910390a15050565b600061039b6103e9565b90506103a5610416565b8181600401819055507f848ba7852320e491d84ddc22f1f12fe48672aa22757fc4452703c9046d9982d7826040516103dd9190610555565b60405180910390a15050565b6000807fa223312a216e34e17ad102c9d81ce3c0d9a16b0fce2a477c118cde325d32220690508091505090565b61041e6104b1565b60040160009054906101000a900473ffffffffffffffffffffffffffffffffffffffff1673ffffffffffffffffffffffffffffffffffffffff163373ffffffffffffffffffffffffffffffffffffffff16146104af576040517f08c379a00000000000000000000000000000000000000000000000000000000081526004016104a6906106c2565b60405180910390fd5b565b6000807fc8fcad8db84d3cc18b4c41d551ea0ee66dd599cde068d998e57d5e09332c131c90508091505090565b600080fd5b6000819050919050565b6104f6816104e3565b811461050157600080fd5b50565b600081359050610513816104ed565b92915050565b60006020828403121561052f5761052e6104de565b5b600061053d84828501610504565b91505092915050565b61054f816104e3565b82525050565b600060208201905061056a6000830184610546565b92915050565b600073ffffffffffffffffffffffffffffffffffffffff82169050919050565b600061059b82610570565b9050919050565b6105ab81610590565b82525050565b60006040820190506105c660008301856105a2565b6105d36020830184610546565b9392505050565b60008115159050919050565b6105ef816105da565b81146105fa57600080fd5b50565b60008151905061060c816105e6565b92915050565b600060208284031215610628576106276104de565b5b6000610636848285016105fd565b91505092915050565b600082825260208201905092915050565b7f4c69624469616d6f6e643a204d75737420626520636f6e7472616374206f776e60008201527f6572000000000000000000000000000000000000000000000000000000000000602082015250565b60006106ac60228361063f565b91506106b782610650565b604082019050919050565b600060208201905081810360008301526106db8161069f565b905091905056fea26469706673582212200b3b6197ccef3497ad8975c1e471f8fc3b59fb00ae421a88df8bea040e03527664736f6c634300080d0033",
  "devdoc": {
    "kind": "dev",
    "methods": {
      "setCursedBondPercentage(uint256)": {
        "details": "Can only be called by the owner.",
        "params": {
          "cursedBondPercentage": "ratio to set."
        }
      },
      "setEmbalmerClaimWindow(uint256)": {
        "details": "Can only be called by the diamond owner.",
        "params": {
          "embalmerClaimWindow": "to set"
        }
      },
      "setExpirationThreshold(uint256)": {
        "details": "Can only be called by the diamond owner.",
        "params": {
          "expirationThreshold": "to set"
        }
      },
      "setGracePeriod(uint256)": {
        "details": "Can only be called by the diamond owner.",
        "params": {
          "gracePeriod": "to set"
        }
      },
      "setProtocolFeeBasePercentage(uint256)": {
        "details": "Can only be called by the owner.",
        "params": {
          "protocolFeeBasePercentage": "percentage to set"
        }
      },
      "withdrawProtocolFees()": {
        "details": "Can only be called by the owner."
      }
    },
    "version": 1
  },
  "userdoc": {
    "errors": {
      "CannotSetZeroValue()": [
        {
          "notice": "Admin has attempted to set a zero value"
        }
      ]
    },
    "kind": "user",
    "methods": {
      "setCursedBondPercentage(uint256)": {
        "notice": "Sets the digging fee / cursed bond ratio used to calculate how much bond archaeologists must lock per curse."
      },
      "setEmbalmerClaimWindow(uint256)": {
        "notice": "Updates the embalmerClaimWindow"
      },
      "setExpirationThreshold(uint256)": {
        "notice": "Updates the expirationThreshold used during sarcophagus creation"
      },
      "setGracePeriod(uint256)": {
        "notice": "Updates the resurrection grace period"
      },
      "setProtocolFeeBasePercentage(uint256)": {
        "notice": "Sets the protocol fee base percentage, used to calculate protocol fees"
      },
      "withdrawProtocolFees()": {
        "notice": "Withdraws the total protocol fee amount from the contract."
      }
    },
    "version": 1
  },
  "storageLayout": {
    "storage": [],
    "types": null
  }
}