{
  "address": "0x22996e200510f543399216e46Ab58d43B6693577",
  "abi": [
    {
      "inputs": [
        {
          "internalType": "contract IERC20",
          "name": "sarcoToken",
          "type": "address"
        },
        {
          "internalType": "uint256",
          "name": "protocolFeeBasePercentage",
          "type": "uint256"
        },
        {
          "internalType": "uint256",
          "name": "gracePeriod",
          "type": "uint256"
        },
        {
          "internalType": "uint256",
          "name": "embalmerClaimWindow",
          "type": "uint256"
        },
        {
          "internalType": "uint256",
          "name": "expirationThreshold",
          "type": "uint256"
        }
      ],
      "name": "init",
      "outputs": [],
      "stateMutability": "nonpayable",
      "type": "function"
    }
  ],
  "transactionHash": "0x4ee35e94bfa48175f31a75770606f3286ca89cac2cd4db1d069626e4fbbfefce",
  "args": [],
  "numDeployments": 5,
  "solcInputHash": "81ad1b682c45487f00525ea51ba5b3ac",
  "bytecode": "0x608060405234801561001057600080fd5b5061025a806100206000396000f3fe608060405234801561001057600080fd5b506004361061002b5760003560e01c80639a73061714610030575b600080fd5b61004a600480360381019061004591906101a9565b61004c565b005b60006100566100d1565b9050858160000160006101000a81548173ffffffffffffffffffffffffffffffffffffffff021916908373ffffffffffffffffffffffffffffffffffffffff16021790555084816002018190555060648160030181905550838160040181905550828160060181905550818160050181905550505050505050565b6000807fa223312a216e34e17ad102c9d81ce3c0d9a16b0fce2a477c118cde325d32220690508091505090565b600080fd5b600073ffffffffffffffffffffffffffffffffffffffff82169050919050565b600061012e82610103565b9050919050565b600061014082610123565b9050919050565b61015081610135565b811461015b57600080fd5b50565b60008135905061016d81610147565b92915050565b6000819050919050565b61018681610173565b811461019157600080fd5b50565b6000813590506101a38161017d565b92915050565b600080600080600060a086880312156101c5576101c46100fe565b5b60006101d38882890161015e565b95505060206101e488828901610194565b94505060406101f588828901610194565b935050606061020688828901610194565b925050608061021788828901610194565b915050929550929590935056fea264697066735822122037a90488bfcf4bbe5dc6b2fc0841aa8cb5aaf35a7d299f5cdf1f33a5c23168a164736f6c634300080d0033",
  "devdoc": {
    "kind": "dev",
    "methods": {
      "init(address,uint256,uint256,uint256,uint256)": {
        "details": "Add any AppStorage struct properties here to initialize values"
      }
    },
    "version": 1
  },
  "userdoc": {
    "kind": "user",
    "methods": {
      "init(address,uint256,uint256,uint256,uint256)": {
        "notice": "Initializes the app with default state values"
      }
    },
    "version": 1
  },
  "storageLayout": {
    "storage": [],
    "types": null
  }
}