{
  "address": "0x2dD49A73481BE6437813cb560439Ab809B17e3c2",
  "abi": [
    {
      "inputs": [
        {
          "internalType": "address",
          "name": "archaeologistAddress",
          "type": "address"
        }
      ],
      "name": "ArchaeologistAlreadyPublishedPrivateKey",
      "type": "error"
    },
    {
      "inputs": [
        {
          "internalType": "address",
          "name": "archaeologistAddress",
          "type": "address"
        },
        {
          "internalType": "bytes32",
          "name": "sarcoId",
          "type": "bytes32"
        }
      ],
      "name": "ArchaeologistHasBeenAccused",
      "type": "error"
    },
    {
      "inputs": [
        {
          "internalType": "address",
          "name": "archaeologist",
          "type": "address"
        }
      ],
      "name": "ArchaeologistNotOnSarcophagus",
      "type": "error"
    },
    {
      "inputs": [
        {
          "internalType": "bool",
          "name": "exists",
          "type": "bool"
        },
        {
          "internalType": "address",
          "name": "archaeologist",
          "type": "address"
        }
      ],
      "name": "ArchaeologistProfileExistsShouldBe",
      "type": "error"
    },
    {
      "inputs": [
        {
          "internalType": "address",
          "name": "archaeologistAddress",
          "type": "address"
        },
        {
          "internalType": "bytes",
          "name": "publicKey",
          "type": "bytes"
        },
        {
          "internalType": "bytes32",
          "name": "privateKey",
          "type": "bytes32"
        }
      ],
      "name": "ArchaeologistPublishedIncorrectPrivateKey",
      "type": "error"
    },
    {
      "inputs": [],
      "name": "CannotSetZeroProfileValue",
      "type": "error"
    },
    {
      "inputs": [
        {
          "internalType": "uint256",
          "name": "cursedBond",
          "type": "uint256"
        },
        {
          "internalType": "uint256",
          "name": "amount",
          "type": "uint256"
        }
      ],
      "name": "NotEnoughCursedBond",
      "type": "error"
    },
    {
      "inputs": [
        {
          "internalType": "uint256",
          "name": "freeBond",
          "type": "uint256"
        },
        {
          "internalType": "uint256",
          "name": "amount",
          "type": "uint256"
        }
      ],
      "name": "NotEnoughFreeBond",
      "type": "error"
    },
    {
      "inputs": [
        {
          "internalType": "bytes32",
          "name": "sarcoId",
          "type": "bytes32"
        }
      ],
      "name": "SarcophagusCompromised",
      "type": "error"
    },
    {
      "inputs": [
        {
          "internalType": "bytes32",
          "name": "sarcoId",
          "type": "bytes32"
        }
      ],
      "name": "SarcophagusDoesNotExist",
      "type": "error"
    },
    {
      "inputs": [
        {
          "internalType": "bytes32",
          "name": "sarcoId",
          "type": "bytes32"
        }
      ],
      "name": "SarcophagusInactive",
      "type": "error"
    },
    {
      "inputs": [
        {
          "internalType": "uint256",
          "name": "currentTime",
          "type": "uint256"
        },
        {
          "internalType": "uint256",
          "name": "resurrectionTime",
          "type": "uint256"
        }
      ],
      "name": "TooEarlyForPublish",
      "type": "error"
    },
    {
      "inputs": [
        {
          "internalType": "uint256",
          "name": "currentTime",
          "type": "uint256"
        },
        {
          "internalType": "uint256",
          "name": "publishDeadline",
          "type": "uint256"
        }
      ],
      "name": "TooLateForPublish",
      "type": "error"
    },
    {
      "anonymous": false,
      "inputs": [
        {
          "indexed": true,
          "internalType": "address",
          "name": "archaeologist",
          "type": "address"
        },
        {
          "indexed": false,
          "internalType": "uint256",
          "name": "depositedBond",
          "type": "uint256"
        }
      ],
      "name": "DepositFreeBond",
      "type": "event"
    },
    {
      "anonymous": false,
      "inputs": [
        {
          "indexed": true,
          "internalType": "bytes32",
          "name": "sarcoId",
          "type": "bytes32"
        },
        {
          "indexed": false,
          "internalType": "bytes32",
          "name": "privateKey",
          "type": "bytes32"
        },
        {
          "indexed": true,
          "internalType": "address",
          "name": "archaeologist",
          "type": "address"
        }
      ],
      "name": "PublishPrivateKey",
      "type": "event"
    },
    {
      "anonymous": false,
      "inputs": [
        {
          "indexed": true,
          "internalType": "address",
          "name": "archaeologist",
          "type": "address"
        },
        {
          "indexed": false,
          "internalType": "string",
          "name": "peerId",
          "type": "string"
        },
        {
          "indexed": false,
          "internalType": "uint256",
          "name": "minimumDiggingFee",
          "type": "uint256"
        },
        {
          "indexed": false,
          "internalType": "uint256",
          "name": "maximumRewrapInterval",
          "type": "uint256"
        },
        {
          "indexed": false,
          "internalType": "uint256",
          "name": "freeBond",
          "type": "uint256"
        },
        {
          "indexed": false,
          "internalType": "uint256",
          "name": "maximumResurrectionTime",
          "type": "uint256"
        }
      ],
      "name": "RegisterArchaeologist",
      "type": "event"
    },
    {
      "anonymous": false,
      "inputs": [
        {
          "indexed": true,
          "internalType": "address",
          "name": "archaeologist",
          "type": "address"
        },
        {
          "indexed": false,
          "internalType": "string",
          "name": "peerId",
          "type": "string"
        },
        {
          "indexed": false,
          "internalType": "uint256",
          "name": "minimumDiggingFee",
          "type": "uint256"
        },
        {
          "indexed": false,
          "internalType": "uint256",
          "name": "maximumRewrapInterval",
          "type": "uint256"
        },
        {
          "indexed": false,
          "internalType": "uint256",
          "name": "freeBond",
          "type": "uint256"
        },
        {
          "indexed": false,
          "internalType": "uint256",
          "name": "maximumResurrectionTime",
          "type": "uint256"
        }
      ],
      "name": "UpdateArchaeologist",
      "type": "event"
    },
    {
      "anonymous": false,
      "inputs": [
        {
          "indexed": true,
          "internalType": "address",
          "name": "archaeologist",
          "type": "address"
        },
        {
          "indexed": false,
          "internalType": "uint256",
          "name": "withdrawnBond",
          "type": "uint256"
        }
      ],
      "name": "WithdrawFreeBond",
      "type": "event"
    },
    {
      "anonymous": false,
      "inputs": [
        {
          "indexed": true,
          "internalType": "address",
          "name": "archaeologist",
          "type": "address"
        },
        {
          "indexed": false,
          "internalType": "uint256",
          "name": "withdrawnReward",
          "type": "uint256"
        }
      ],
      "name": "WithdrawReward",
      "type": "event"
    },
    {
      "inputs": [
        {
          "internalType": "uint256",
          "name": "amount",
          "type": "uint256"
        }
      ],
      "name": "depositFreeBond",
      "outputs": [],
      "stateMutability": "nonpayable",
      "type": "function"
    },
    {
      "inputs": [
        {
          "internalType": "bytes32",
          "name": "sarcoId",
          "type": "bytes32"
        },
        {
          "internalType": "bytes32",
          "name": "privateKey",
          "type": "bytes32"
        }
      ],
      "name": "publishPrivateKey",
      "outputs": [],
      "stateMutability": "nonpayable",
      "type": "function"
    },
    {
      "inputs": [
        {
          "internalType": "string",
          "name": "peerId",
          "type": "string"
        },
        {
          "internalType": "uint256",
          "name": "minimumDiggingFeePerSecond",
          "type": "uint256"
        },
        {
          "internalType": "uint256",
          "name": "maximumRewrapInterval",
          "type": "uint256"
        },
        {
          "internalType": "uint256",
          "name": "freeBond",
          "type": "uint256"
        },
        {
          "internalType": "uint256",
          "name": "maximumResurrectionTime",
          "type": "uint256"
        }
      ],
      "name": "registerArchaeologist",
      "outputs": [],
      "stateMutability": "nonpayable",
      "type": "function"
    },
    {
      "inputs": [
        {
          "internalType": "string",
          "name": "peerId",
          "type": "string"
        },
        {
          "internalType": "uint256",
          "name": "minimumDiggingFeePerSecond",
          "type": "uint256"
        },
        {
          "internalType": "uint256",
          "name": "maximumRewrapInterval",
          "type": "uint256"
        },
        {
          "internalType": "uint256",
          "name": "freeBond",
          "type": "uint256"
        },
        {
          "internalType": "uint256",
          "name": "maximumResurrectionTime",
          "type": "uint256"
        }
      ],
      "name": "updateArchaeologist",
      "outputs": [],
      "stateMutability": "nonpayable",
      "type": "function"
    },
    {
      "inputs": [
        {
          "internalType": "uint256",
          "name": "amount",
          "type": "uint256"
        }
      ],
      "name": "withdrawFreeBond",
      "outputs": [],
      "stateMutability": "nonpayable",
      "type": "function"
    },
    {
      "inputs": [],
      "name": "withdrawReward",
      "outputs": [],
      "stateMutability": "nonpayable",
      "type": "function"
    }
  ],
  "transactionHash": "0xe5b605d21e883b2e22b46c49b31b8fb5f4591534fd7eb8d679e7cefe33fc37da",
  "args": [],
  "numDeployments": 4,
  "solcInputHash": "50efe6a3d8d462e9abce44badd6273ba",
  "bytecode": "0x608060405234801561001057600080fd5b50612177806100206000396000f3fe608060405234801561001057600080fd5b50600436106100625760003560e01c8063364e0801146100675780636a5ac74c146100835780637f06727a1461009f5780638355a17b146100bb578063a4110dbe146100d7578063c885bc58146100f3575b600080fd5b610081600480360381019061007c91906116e9565b6100fd565b005b61009d600480360381019061009891906116e9565b610211565b005b6100b960048036038101906100b4919061185c565b610378565b005b6100d560048036038101906100d0919061185c565b6105c8565b005b6100f160048036038101906100ec9190611929565b610870565b005b6100fb610c63565b005b6000610107610df1565b905061011233610e1e565b61011c3383610eba565b8060000160009054906101000a900473ffffffffffffffffffffffffffffffffffffffff1673ffffffffffffffffffffffffffffffffffffffff1663a9059cbb33846040518363ffffffff1660e01b815260040161017b9291906119b9565b6020604051808303816000875af115801561019a573d6000803e3d6000fd5b505050506040513d601f19601f820116820180604052508101906101be9190611a1a565b503373ffffffffffffffffffffffffffffffffffffffff167fd91b1e491a880123721b161dbbf8249668b0c546077d7ba4d0016441ca9d8f45836040516102059190611a47565b60405180910390a25050565b600061021b610df1565b905061022633610e1e565b8181600d0160003373ffffffffffffffffffffffffffffffffffffffff1673ffffffffffffffffffffffffffffffffffffffff168152602001908152602001600020600401600082825461027a9190611a91565b925050819055508060000160009054906101000a900473ffffffffffffffffffffffffffffffffffffffff1673ffffffffffffffffffffffffffffffffffffffff166323b872dd3330856040518463ffffffff1660e01b81526004016102e293929190611ae7565b6020604051808303816000875af1158015610301573d6000803e3d6000fd5b505050506040513d601f19601f820116820180604052508101906103259190611a1a565b503373ffffffffffffffffffffffffffffffffffffffff167ff882a0847c57aefe6f6c7df2098dd0afd122eb0e886199e223651b8e45fda8238360405161036c9190611a47565b60405180910390a25050565b6000610382610df1565b905061038d33610e1e565b600084148061039c5750600085145b156103d3576040517fdec9919f00000000000000000000000000000000000000000000000000000000815260040160405180910390fd5b600081600d0160003373ffffffffffffffffffffffffffffffffffffffff1673ffffffffffffffffffffffffffffffffffffffff1681526020019081526020016000209050868160020190805190602001906104309291906115fc565b508581600301819055508481600001819055508281600101819055506000841115610556578382600d0160003373ffffffffffffffffffffffffffffffffffffffff1673ffffffffffffffffffffffffffffffffffffffff16815260200190815260200160002060040160008282546104a99190611a91565b925050819055508160000160009054906101000a900473ffffffffffffffffffffffffffffffffffffffff1673ffffffffffffffffffffffffffffffffffffffff166323b872dd3330876040518463ffffffff1660e01b815260040161051193929190611ae7565b6020604051808303816000875af1158015610530573d6000803e3d6000fd5b505050506040513d601f19601f820116820180604052508101906105549190611a1a565b505b3373ffffffffffffffffffffffffffffffffffffffff167f8937618657bc05b4e1f529d147029377f8e0e6886ecf59183d212f263bd1bfa18260020183600301548460000154856004015486600101546040516105b7959493929190611c24565b60405180910390a250505050505050565b60006105d2610df1565b90506105dd33610ff5565b60008414806105ec5750600085145b15610623576040517fdec9919f00000000000000000000000000000000000000000000000000000000815260040160405180910390fd5b60006040518060c00160405280868152602001848152602001888152602001878152602001858152602001600081525090506000841115610704578160000160009054906101000a900473ffffffffffffffffffffffffffffffffffffffff1673ffffffffffffffffffffffffffffffffffffffff166323b872dd3330876040518463ffffffff1660e01b81526004016106bf93929190611ae7565b6020604051808303816000875af11580156106de573d6000803e3d6000fd5b505050506040513d601f19601f820116820180604052508101906107029190611a1a565b505b8082600d0160003373ffffffffffffffffffffffffffffffffffffffff1673ffffffffffffffffffffffffffffffffffffffff168152602001908152602001600020600082015181600001556020820151816001015560408201518160020190805190602001906107769291906115fc565b50606082015181600301556080820151816004015560a0820151816005015590505081600701339080600181540180825580915050600190039060005260206000200160009091909190916101000a81548173ffffffffffffffffffffffffffffffffffffffff021916908373ffffffffffffffffffffffffffffffffffffffff1602179055503373ffffffffffffffffffffffffffffffffffffffff167f4d7b40490f4c8e19031e2c3248c8e1da3d74d5779beb3b7e2d7295194a58edd98260400151836060015184600001518560800151866020015160405161085f959493929190611cf5565b60405180910390a250505050505050565b600061087a610df1565b9050600081600c016000858152602001908152602001600020905060008160000154036108de57836040517f018da6880000000000000000000000000000000000000000000000000000000081526004016108d59190611d5e565b60405180910390fd5b8060020160009054906101000a900460ff161561093257836040517f9af72b860000000000000000000000000000000000000000000000000000000081526004016109299190611d5e565b60405180910390fd5b7fffffffffffffffffffffffffffffffffffffffffffffffffffffffffffffffff81600001540361099a57836040517f7c6a6d700000000000000000000000000000000000000000000000000000000081526004016109919190611d5e565b60405180910390fd5b80600001544210156109e9574281600001546040517f482768090000000000000000000000000000000000000000000000000000000081526004016109e0929190611d79565b60405180910390fd5b816004015481600001546109fd9190611a91565b421115610a56574282600401548260000154610a199190611a91565b6040517f4ccffab1000000000000000000000000000000000000000000000000000000008152600401610a4d929190611d79565b60405180910390fd5b600082600c016000868152602001908152602001600020600a0160003373ffffffffffffffffffffffffffffffffffffffff1673ffffffffffffffffffffffffffffffffffffffff16815260200190815260200160002090506000816002018054610ac090611b4d565b905003610b0457336040517f82881f03000000000000000000000000000000000000000000000000000000008152600401610afb9190611da2565b60405180910390fd5b8060030160009054906101000a900460ff1615610b5a5733856040517fa40b4423000000000000000000000000000000000000000000000000000000008152600401610b51929190611dbd565b60405180910390fd5b6000801b816001015414610ba557336040517f7b06b177000000000000000000000000000000000000000000000000000000008152600401610b9c9190611da2565b60405180910390fd5b610bb28482600201611091565b610bfa573381600201856040517f5a95e91c000000000000000000000000000000000000000000000000000000008152600401610bf193929190611e8c565b60405180910390fd5b838160010181905550610c0d8533611336565b3373ffffffffffffffffffffffffffffffffffffffff16857f110eca32dd0b1dbdeaa29671186ba025abb2a6d9c193469a7214ee3244ef740486604051610c549190611d5e565b60405180910390a35050505050565b6000610c6d610df1565b9050600081600e0160003373ffffffffffffffffffffffffffffffffffffffff1673ffffffffffffffffffffffffffffffffffffffff168152602001908152602001600020549050600082600e0160003373ffffffffffffffffffffffffffffffffffffffff1673ffffffffffffffffffffffffffffffffffffffff168152602001908152602001600020819055508160000160009054906101000a900473ffffffffffffffffffffffffffffffffffffffff1673ffffffffffffffffffffffffffffffffffffffff1663a9059cbb33836040518363ffffffff1660e01b8152600401610d5b9291906119b9565b6020604051808303816000875af1158015610d7a573d6000803e3d6000fd5b505050506040513d601f19601f82011682018060405250810190610d9e9190611a1a565b503373ffffffffffffffffffffffffffffffffffffffff167fbc84835063c693975166f00cffb19f01a94c2db55b1bf259238c5da3594e506682604051610de59190611a47565b60405180910390a25050565b6000807f1464b352a39efde2dd07892d0f2f274ce8052e8749182fc4ead14ba82366194490508091505090565b6000610e28610df1565b9050600081600d0160008473ffffffffffffffffffffffffffffffffffffffff1673ffffffffffffffffffffffffffffffffffffffff1681526020019081526020016000206000015403610eb6576001826040517f2eeb3571000000000000000000000000000000000000000000000000000000008152600401610ead929190611ed9565b60405180910390fd5b5050565b6000610ec4610df1565b905080600d0160008473ffffffffffffffffffffffffffffffffffffffff1673ffffffffffffffffffffffffffffffffffffffff16815260200190815260200160002060040154821115610f955780600d0160008473ffffffffffffffffffffffffffffffffffffffff1673ffffffffffffffffffffffffffffffffffffffff16815260200190815260200160002060040154826040517fa4e3bead000000000000000000000000000000000000000000000000000000008152600401610f8c929190611d79565b60405180910390fd5b8181600d0160008573ffffffffffffffffffffffffffffffffffffffff1673ffffffffffffffffffffffffffffffffffffffff1681526020019081526020016000206004016000828254610fe99190611f02565b92505081905550505050565b6000610fff610df1565b9050600081600d0160008473ffffffffffffffffffffffffffffffffffffffff1673ffffffffffffffffffffffffffffffffffffffff168152602001908152602001600020600001541461108d576000826040517f2eeb3571000000000000000000000000000000000000000000000000000000008152600401611084929190611ed9565b60405180910390fd5b5050565b60008060018380546110a290611b4d565b90506110ae9190611f02565b67ffffffffffffffff8111156110c7576110c6611731565b5b6040519080825280601f01601f1916602001820160405280156110f95781602001600182028036833780820191505090505b5090506000600190505b83805461110f90611b4d565b90508110156111da578381815461112590611b4d565b811061113457611133611f36565b5b8154600116156111535790600052602060002090602091828204019190065b9054901a7f010000000000000000000000000000000000000000000000000000000000000002826001836111879190611f02565b8151811061119857611197611f36565b5b60200101907effffffffffffffffffffffffffffffffffffffffffffffffffffffffffffff1916908160001a90535080806111d290611f65565b915050611103565b5060007f79be667ef9dcbbac55a06295ce870b07029bfcdb2dce28d959f2815b16f81798905060007f483ada7726a3c4655da4fbfc0e1108a8fd17b448a68554199c47d08ffb10d4b8905060007ffffffffffffffffffffffffffffffffebaaedce6af48a03bbfd25e8cd036414190506000600160008060028661125e9190611fdc565b0361126a57601b61126d565b601c5b8660001b85806112805761127f611fad565b5b888d60001c0960001b604051600081526020016040526040516112a69493929190612071565b6020604051602081039080840390855afa1580156112c8573d6000803e3d6000fd5b505050602060405103519050600073ffffffffffffffffffffffffffffffffffffffff868051906020012060001c1690508173ffffffffffffffffffffffffffffffffffffffff168173ffffffffffffffffffffffffffffffffffffffff1614965050505050505092915050565b6000611340610df1565b9050600081600c0160008581526020019081526020016000209050600082600c016000868152602001908152602001600020600a0160008573ffffffffffffffffffffffffffffffffffffffff1673ffffffffffffffffffffffffffffffffffffffff16815260200190815260200160002090506000826001015483600001546113ca9190611f02565b82600001546113d991906120b6565b90506000606484600b0154836113ef91906120b6565b6113f99190612110565b905061140586826114c1565b8085600d0160008873ffffffffffffffffffffffffffffffffffffffff1673ffffffffffffffffffffffffffffffffffffffff16815260200190815260200160002060040160008282546114599190611a91565b925050819055508185600e0160008873ffffffffffffffffffffffffffffffffffffffff1673ffffffffffffffffffffffffffffffffffffffff16815260200190815260200160002060008282546114b19190611a91565b9250508190555050505050505050565b60006114cb610df1565b905080600d0160008473ffffffffffffffffffffffffffffffffffffffff1673ffffffffffffffffffffffffffffffffffffffff1681526020019081526020016000206005015482111561159c5780600d0160008473ffffffffffffffffffffffffffffffffffffffff1673ffffffffffffffffffffffffffffffffffffffff16815260200190815260200160002060050154826040517faf5a111b000000000000000000000000000000000000000000000000000000008152600401611593929190611d79565b60405180910390fd5b8181600d0160008573ffffffffffffffffffffffffffffffffffffffff1673ffffffffffffffffffffffffffffffffffffffff16815260200190815260200160002060050160008282546115f09190611f02565b92505081905550505050565b82805461160890611b4d565b90600052602060002090601f01602090048101928261162a5760008555611671565b82601f1061164357805160ff1916838001178555611671565b82800160010185558215611671579182015b82811115611670578251825591602001919060010190611655565b5b50905061167e9190611682565b5090565b5b8082111561169b576000816000905550600101611683565b5090565b6000604051905090565b600080fd5b600080fd5b6000819050919050565b6116c6816116b3565b81146116d157600080fd5b50565b6000813590506116e3816116bd565b92915050565b6000602082840312156116ff576116fe6116a9565b5b600061170d848285016116d4565b91505092915050565b600080fd5b600080fd5b6000601f19601f8301169050919050565b7f4e487b7100000000000000000000000000000000000000000000000000000000600052604160045260246000fd5b61176982611720565b810181811067ffffffffffffffff8211171561178857611787611731565b5b80604052505050565b600061179b61169f565b90506117a78282611760565b919050565b600067ffffffffffffffff8211156117c7576117c6611731565b5b6117d082611720565b9050602081019050919050565b82818337600083830152505050565b60006117ff6117fa846117ac565b611791565b90508281526020810184848401111561181b5761181a61171b565b5b6118268482856117dd565b509392505050565b600082601f83011261184357611842611716565b5b81356118538482602086016117ec565b91505092915050565b600080600080600060a08688031215611878576118776116a9565b5b600086013567ffffffffffffffff811115611896576118956116ae565b5b6118a28882890161182e565b95505060206118b3888289016116d4565b94505060406118c4888289016116d4565b93505060606118d5888289016116d4565b92505060806118e6888289016116d4565b9150509295509295909350565b6000819050919050565b611906816118f3565b811461191157600080fd5b50565b600081359050611923816118fd565b92915050565b600080604083850312156119405761193f6116a9565b5b600061194e85828601611914565b925050602061195f85828601611914565b9150509250929050565b600073ffffffffffffffffffffffffffffffffffffffff82169050919050565b600061199482611969565b9050919050565b6119a481611989565b82525050565b6119b3816116b3565b82525050565b60006040820190506119ce600083018561199b565b6119db60208301846119aa565b9392505050565b60008115159050919050565b6119f7816119e2565b8114611a0257600080fd5b50565b600081519050611a14816119ee565b92915050565b600060208284031215611a3057611a2f6116a9565b5b6000611a3e84828501611a05565b91505092915050565b6000602082019050611a5c60008301846119aa565b92915050565b7f4e487b7100000000000000000000000000000000000000000000000000000000600052601160045260246000fd5b6000611a9c826116b3565b9150611aa7836116b3565b9250827fffffffffffffffffffffffffffffffffffffffffffffffffffffffffffffffff03821115611adc57611adb611a62565b5b828201905092915050565b6000606082019050611afc600083018661199b565b611b09602083018561199b565b611b1660408301846119aa565b949350505050565b7f4e487b7100000000000000000000000000000000000000000000000000000000600052602260045260246000fd5b60006002820490506001821680611b6557607f821691505b602082108103611b7857611b77611b1e565b5b50919050565b600082825260208201905092915050565b60008190508160005260206000209050919050565b60008154611bb181611b4d565b611bbb8186611b7e565b94506001821660008114611bd65760018114611be857611c1b565b60ff1983168652602086019350611c1b565b611bf185611b8f565b60005b83811015611c1357815481890152600182019150602081019050611bf4565b808801955050505b50505092915050565b600060a0820190508181036000830152611c3e8188611ba4565b9050611c4d60208301876119aa565b611c5a60408301866119aa565b611c6760608301856119aa565b611c7460808301846119aa565b9695505050505050565b600081519050919050565b60005b83811015611ca7578082015181840152602081019050611c8c565b83811115611cb6576000848401525b50505050565b6000611cc782611c7e565b611cd18185611b7e565b9350611ce1818560208601611c89565b611cea81611720565b840191505092915050565b600060a0820190508181036000830152611d0f8188611cbc565b9050611d1e60208301876119aa565b611d2b60408301866119aa565b611d3860608301856119aa565b611d4560808301846119aa565b9695505050505050565b611d58816118f3565b82525050565b6000602082019050611d736000830184611d4f565b92915050565b6000604082019050611d8e60008301856119aa565b611d9b60208301846119aa565b9392505050565b6000602082019050611db7600083018461199b565b92915050565b6000604082019050611dd2600083018561199b565b611ddf6020830184611d4f565b9392505050565b600082825260208201905092915050565b60008190508160005260206000209050919050565b60008154611e1981611b4d565b611e238186611de6565b94506001821660008114611e3e5760018114611e5057611e83565b60ff1983168652602086019350611e83565b611e5985611df7565b60005b83811015611e7b57815481890152600182019150602081019050611e5c565b808801955050505b50505092915050565b6000606082019050611ea1600083018661199b565b8181036020830152611eb38185611e0c565b9050611ec26040830184611d4f565b949350505050565b611ed3816119e2565b82525050565b6000604082019050611eee6000830185611eca565b611efb602083018461199b565b9392505050565b6000611f0d826116b3565b9150611f18836116b3565b925082821015611f2b57611f2a611a62565b5b828203905092915050565b7f4e487b7100000000000000000000000000000000000000000000000000000000600052603260045260246000fd5b6000611f70826116b3565b91507fffffffffffffffffffffffffffffffffffffffffffffffffffffffffffffffff8203611fa257611fa1611a62565b5b600182019050919050565b7f4e487b7100000000000000000000000000000000000000000000000000000000600052601260045260246000fd5b6000611fe7826116b3565b9150611ff2836116b3565b92508261200257612001611fad565b5b828206905092915050565b6000819050919050565b60008160001b9050919050565b600061203f61203a6120358461200d565b612017565b6118f3565b9050919050565b61204f81612024565b82525050565b600060ff82169050919050565b61206b81612055565b82525050565b60006080820190506120866000830187612046565b6120936020830186612062565b6120a06040830185611d4f565b6120ad6060830184611d4f565b95945050505050565b60006120c1826116b3565b91506120cc836116b3565b9250817fffffffffffffffffffffffffffffffffffffffffffffffffffffffffffffffff048311821515161561210557612104611a62565b5b828202905092915050565b600061211b826116b3565b9150612126836116b3565b92508261213657612135611fad565b5b82820490509291505056fea264697066735822122007d6763e594a0be8bf80333f987454444bfa0125016d7e0dd84cd4f190b1177764736f6c634300080d0033",
  "devdoc": {
    "errors": {
      "ArchaeologistAlreadyPublishedPrivateKey(address)": [
        {
          "params": {
            "archaeologistAddress": "address of publishing archaeologist"
          }
        }
      ],
      "ArchaeologistHasBeenAccused(address,bytes32)": [
        {
          "params": {
            "archaeologistAddress": "Address of accused archaeologist who is attempting to publish their private key",
            "sarcoId": "ID of sarcophagus archaeologist has attempted to publish a key on"
          }
        }
      ],
      "ArchaeologistPublishedIncorrectPrivateKey(address,bytes,bytes32)": [
        {
          "params": {
            "archaeologistAddress": "address of publishing archaeologist",
            "privateKey": "privateKey the archaeologist has attempted to publish",
            "publicKey": "publicKey stored for archaeologist on the sarcophagus"
          }
        }
      ],
      "TooEarlyForPublish(uint256,uint256)": [
        {
          "params": {
            "currentTime": "Timestamp of the failed publish attempt",
            "resurrectionTime": "Time after which the sarcophagus can be resurrected"
          }
        }
      ],
      "TooLateForPublish(uint256,uint256)": [
        {
          "params": {
            "currentTime": "Timestamp of the failed publish attempt",
            "publishDeadline": "Time after which the sarcophagus can no longer be resurrected  (resurrectionTime + gracePeriod)"
          }
        }
      ]
    },
    "events": {
      "PublishPrivateKey(bytes32,bytes32,address)": {
        "params": {
          "privateKey": "private key that has been published",
          "sarcoId": "ID of sarcophagus archaeologist has published the private key on"
        }
      }
    },
    "kind": "dev",
    "methods": {
      "depositFreeBond(uint256)": {
        "params": {
          "amount": "The amount to deposit"
        }
      },
      "publishPrivateKey(bytes32,bytes32)": {
        "params": {
          "privateKey": "The private key the archaeologist is publishing",
          "sarcoId": "The identifier of the sarcophagus for which the archaeologist is responsible"
        }
      },
      "registerArchaeologist(string,uint256,uint256,uint256,uint256)": {
        "params": {
          "freeBond": "How much bond the archaeologist wants to deposit during the register call (if any)",
          "maximumResurrectionTime": "The time beyond which the archaeologist is not willing to accept new curses or rewraps",
          "maximumRewrapInterval": "The longest interval of time from a rewrap time the arch will accept for a resurrection",
          "minimumDiggingFeePerSecond": "The archaeologist's minimum amount to earn per second for being cursed",
          "peerId": "The libp2p identifier for the archaeologist"
        }
      },
      "updateArchaeologist(string,uint256,uint256,uint256,uint256)": {
        "params": {
          "maximumRewrapInterval": "The longest interval of time from a rewrap time the arch will accept for a resurrection freeBond How much bond the archaeologist wants to deposit during the update call (if any)",
          "minimumDiggingFeePerSecond": "The archaeologist's minimum amount to earn per second for being cursed",
          "peerId": "The libp2p identifier for the archaeologist"
        }
      },
      "withdrawFreeBond(uint256)": {
        "params": {
          "amount": "The amount to withdraw"
        }
      }
    },
    "version": 1
  },
  "userdoc": {
    "errors": {
      "ArchaeologistAlreadyPublishedPrivateKey(address)": [
        {
          "notice": "Archaeologist has attempted to publish a key for a sarcophagus twice"
        }
      ],
      "ArchaeologistHasBeenAccused(address,bytes32)": [
        {
          "notice": "An archaeologist that has already been successfully accused has attempted to publish their private key"
        }
      ],
      "ArchaeologistPublishedIncorrectPrivateKey(address,bytes,bytes32)": [
        {
          "notice": "Archaeologist has attempted to publish the incorrect private key for a sarcophagus"
        }
      ],
      "CannotSetZeroProfileValue()": [
        {
          "notice": "Archaeologist has attempted to set a zero minimumDiggingFeePerSecond or maximumRewrapInterval"
        }
      ],
      "TooEarlyForPublish(uint256,uint256)": [
        {
          "notice": "Archaeologist has attempted to publish a key before the resurrection time"
        }
      ],
      "TooLateForPublish(uint256,uint256)": [
        {
          "notice": "Archaeologist has attempted to publish a key after the end of the resurrection window"
        }
      ]
    },
    "events": {
      "PublishPrivateKey(bytes32,bytes32,address)": {
        "notice": "Emitted when an archaeologist successfully publishes their private key for a sarcophagus"
      }
    },
    "kind": "user",
    "methods": {
      "depositFreeBond(uint256)": {
        "notice": "Deposits an archaeologist's free bond to the contract."
      },
      "publishPrivateKey(bytes32,bytes32)": {
        "notice": "Publishes the private key for which the archaeologist is responsible during the sarcophagus resurrection window. Pays digging fees to the archaeologist and releases their locked bond. Cannot be called on a compromised or buried sarcophagus."
      },
      "registerArchaeologist(string,uint256,uint256,uint256,uint256)": {
        "notice": "Registers the archaeologist profile"
      },
      "updateArchaeologist(string,uint256,uint256,uint256,uint256)": {
        "notice": "Updates the archaeologist profile"
      },
      "withdrawFreeBond(uint256)": {
        "notice": "Withdraws an archaeologist's free bond from the contract."
      },
      "withdrawReward()": {
        "notice": "Withdraws all rewards from an archaeologist's reward pool"
      }
    },
    "version": 1
  },
  "storageLayout": {
    "storage": [],
    "types": null
  }
}