{
  "address": "0xdf19fF8a1A09CE0a64878D67c30557414BCC923E",
  "abi": [
    {
      "inputs": [
        {
          "internalType": "address",
          "name": "archaeologistAddress",
          "type": "address"
        }
      ],
      "name": "ArchaeologistAlreadyPublishedPrivateKey",
      "type": "error"
    },
    {
      "inputs": [
        {
          "internalType": "address",
          "name": "archaeologistAddress",
          "type": "address"
        },
        {
          "internalType": "bytes32",
          "name": "sarcoId",
          "type": "bytes32"
        }
      ],
      "name": "ArchaeologistHasBeenAccused",
      "type": "error"
    },
    {
      "inputs": [
        {
          "internalType": "address",
          "name": "archaeologist",
          "type": "address"
        }
      ],
      "name": "ArchaeologistNotOnSarcophagus",
      "type": "error"
    },
    {
      "inputs": [
        {
          "internalType": "bool",
          "name": "exists",
          "type": "bool"
        },
        {
          "internalType": "address",
          "name": "archaeologist",
          "type": "address"
        }
      ],
      "name": "ArchaeologistProfileExistsShouldBe",
      "type": "error"
    },
    {
      "inputs": [
        {
          "internalType": "address",
          "name": "archaeologistAddress",
          "type": "address"
        },
        {
          "internalType": "bytes",
          "name": "publicKey",
          "type": "bytes"
        },
        {
          "internalType": "bytes32",
          "name": "privateKey",
          "type": "bytes32"
        }
      ],
      "name": "ArchaeologistPublishedIncorrectPrivateKey",
      "type": "error"
    },
    {
      "inputs": [],
      "name": "CannotSetZeroProfileValue",
      "type": "error"
    },
    {
      "inputs": [
        {
          "internalType": "uint256",
          "name": "cursedBond",
          "type": "uint256"
        },
        {
          "internalType": "uint256",
          "name": "amount",
          "type": "uint256"
        }
      ],
      "name": "NotEnoughCursedBond",
      "type": "error"
    },
    {
      "inputs": [
        {
          "internalType": "uint256",
          "name": "freeBond",
          "type": "uint256"
        },
        {
          "internalType": "uint256",
          "name": "amount",
          "type": "uint256"
        }
      ],
      "name": "NotEnoughFreeBond",
      "type": "error"
    },
    {
      "inputs": [
        {
          "internalType": "bytes32",
          "name": "sarcoId",
          "type": "bytes32"
        }
      ],
      "name": "SarcophagusCompromised",
      "type": "error"
    },
    {
      "inputs": [
        {
          "internalType": "bytes32",
          "name": "sarcoId",
          "type": "bytes32"
        }
      ],
      "name": "SarcophagusDoesNotExist",
      "type": "error"
    },
    {
      "inputs": [
        {
          "internalType": "bytes32",
          "name": "sarcoId",
          "type": "bytes32"
        }
      ],
      "name": "SarcophagusInactive",
      "type": "error"
    },
    {
      "inputs": [
        {
          "internalType": "uint256",
          "name": "currentTime",
          "type": "uint256"
        },
        {
          "internalType": "uint256",
          "name": "resurrectionTime",
          "type": "uint256"
        }
      ],
      "name": "TooEarlyForPublish",
      "type": "error"
    },
    {
      "inputs": [
        {
          "internalType": "uint256",
          "name": "currentTime",
          "type": "uint256"
        },
        {
          "internalType": "uint256",
          "name": "publishDeadline",
          "type": "uint256"
        }
      ],
      "name": "TooLateForPublish",
      "type": "error"
    },
    {
      "anonymous": false,
      "inputs": [
        {
          "indexed": true,
          "internalType": "address",
          "name": "archaeologist",
          "type": "address"
        },
        {
          "indexed": false,
          "internalType": "uint256",
          "name": "depositedBond",
          "type": "uint256"
        }
      ],
      "name": "DepositFreeBond",
      "type": "event"
    },
    {
      "anonymous": false,
      "inputs": [
        {
          "indexed": true,
          "internalType": "bytes32",
          "name": "sarcoId",
          "type": "bytes32"
        },
        {
          "indexed": false,
          "internalType": "bytes32",
          "name": "privateKey",
          "type": "bytes32"
        },
        {
          "indexed": true,
          "internalType": "address",
          "name": "archaeologist",
          "type": "address"
        }
      ],
      "name": "PublishPrivateKey",
      "type": "event"
    },
    {
      "anonymous": false,
      "inputs": [
        {
          "indexed": true,
          "internalType": "address",
          "name": "archaeologist",
          "type": "address"
        },
        {
          "indexed": false,
          "internalType": "string",
          "name": "peerId",
          "type": "string"
        },
        {
          "indexed": false,
          "internalType": "uint256",
          "name": "minimumDiggingFee",
          "type": "uint256"
        },
        {
          "indexed": false,
          "internalType": "uint256",
          "name": "maximumRewrapInterval",
          "type": "uint256"
        },
        {
          "indexed": false,
          "internalType": "uint256",
          "name": "freeBond",
          "type": "uint256"
        },
        {
          "indexed": false,
          "internalType": "uint256",
          "name": "maximumResurrectionTime",
          "type": "uint256"
        },
        {
          "indexed": false,
          "internalType": "uint256",
          "name": "curseFee",
          "type": "uint256"
        }
      ],
      "name": "RegisterArchaeologist",
      "type": "event"
    },
    {
      "anonymous": false,
      "inputs": [
        {
          "indexed": true,
          "internalType": "address",
          "name": "archaeologist",
          "type": "address"
        },
        {
          "indexed": false,
          "internalType": "string",
          "name": "peerId",
          "type": "string"
        },
        {
          "indexed": false,
          "internalType": "uint256",
          "name": "minimumDiggingFee",
          "type": "uint256"
        },
        {
          "indexed": false,
          "internalType": "uint256",
          "name": "maximumRewrapInterval",
          "type": "uint256"
        },
        {
          "indexed": false,
          "internalType": "uint256",
          "name": "freeBond",
          "type": "uint256"
        },
        {
          "indexed": false,
          "internalType": "uint256",
          "name": "maximumResurrectionTime",
          "type": "uint256"
        },
        {
          "indexed": false,
          "internalType": "uint256",
          "name": "curseFee",
          "type": "uint256"
        }
      ],
      "name": "UpdateArchaeologist",
      "type": "event"
    },
    {
      "anonymous": false,
      "inputs": [
        {
          "indexed": true,
          "internalType": "address",
          "name": "archaeologist",
          "type": "address"
        },
        {
          "indexed": false,
          "internalType": "uint256",
          "name": "withdrawnBond",
          "type": "uint256"
        }
      ],
      "name": "WithdrawFreeBond",
      "type": "event"
    },
    {
      "anonymous": false,
      "inputs": [
        {
          "indexed": true,
          "internalType": "address",
          "name": "archaeologist",
          "type": "address"
        },
        {
          "indexed": false,
          "internalType": "uint256",
          "name": "withdrawnReward",
          "type": "uint256"
        }
      ],
      "name": "WithdrawReward",
      "type": "event"
    },
    {
      "inputs": [
        {
          "internalType": "uint256",
          "name": "amount",
          "type": "uint256"
        }
      ],
      "name": "depositFreeBond",
      "outputs": [],
      "stateMutability": "nonpayable",
      "type": "function"
    },
    {
      "inputs": [
        {
          "internalType": "bytes32",
          "name": "sarcoId",
          "type": "bytes32"
        },
        {
          "internalType": "bytes32",
          "name": "privateKey",
          "type": "bytes32"
        }
      ],
      "name": "publishPrivateKey",
      "outputs": [],
      "stateMutability": "nonpayable",
      "type": "function"
    },
    {
      "inputs": [
        {
          "internalType": "string",
          "name": "peerId",
          "type": "string"
        },
        {
          "internalType": "uint256",
          "name": "minimumDiggingFeePerSecond",
          "type": "uint256"
        },
        {
          "internalType": "uint256",
          "name": "maximumRewrapInterval",
          "type": "uint256"
        },
        {
          "internalType": "uint256",
          "name": "freeBond",
          "type": "uint256"
        },
        {
          "internalType": "uint256",
          "name": "maximumResurrectionTime",
          "type": "uint256"
        },
        {
          "internalType": "uint256",
          "name": "curseFee",
          "type": "uint256"
        }
      ],
      "name": "registerArchaeologist",
      "outputs": [],
      "stateMutability": "nonpayable",
      "type": "function"
    },
    {
      "inputs": [
        {
          "internalType": "string",
          "name": "peerId",
          "type": "string"
        },
        {
          "internalType": "uint256",
          "name": "minimumDiggingFeePerSecond",
          "type": "uint256"
        },
        {
          "internalType": "uint256",
          "name": "maximumRewrapInterval",
          "type": "uint256"
        },
        {
          "internalType": "uint256",
          "name": "freeBond",
          "type": "uint256"
        },
        {
          "internalType": "uint256",
          "name": "maximumResurrectionTime",
          "type": "uint256"
        },
        {
          "internalType": "uint256",
          "name": "curseFee",
          "type": "uint256"
        }
      ],
      "name": "updateArchaeologist",
      "outputs": [],
      "stateMutability": "nonpayable",
      "type": "function"
    },
    {
      "inputs": [
        {
          "internalType": "uint256",
          "name": "amount",
          "type": "uint256"
        }
      ],
      "name": "withdrawFreeBond",
      "outputs": [],
      "stateMutability": "nonpayable",
      "type": "function"
    },
    {
      "inputs": [],
      "name": "withdrawReward",
      "outputs": [],
      "stateMutability": "nonpayable",
      "type": "function"
    }
  ],
  "transactionHash": "0x7067ec07c6a04d7f47c032e090442449b6b0b847c35df069464033b8c85a00a6",
  "args": [],
  "numDeployments": 5,
  "solcInputHash": "81ad1b682c45487f00525ea51ba5b3ac",
  "bytecode": "0x608060405234801561001057600080fd5b506121f5806100206000396000f3fe608060405234801561001057600080fd5b50600436106100625760003560e01c8063364e0801146100675780636a5ac74c1461008357806395b22c721461009f578063a4110dbe146100bb578063a4d9eb43146100d7578063c885bc58146100f3575b600080fd5b610081600480360381019061007c9190611739565b6100fd565b005b61009d60048036038101906100989190611739565b610211565b005b6100b960048036038101906100b491906118ac565b610378565b005b6100d560048036038101906100d0919061198b565b6105d8565b005b6100f160048036038101906100ec91906118ac565b6109cb565b005b6100fb610c8a565b005b6000610107610e18565b905061011233610e45565b61011c3383610ee1565b8060000160009054906101000a900473ffffffffffffffffffffffffffffffffffffffff1673ffffffffffffffffffffffffffffffffffffffff1663a9059cbb33846040518363ffffffff1660e01b815260040161017b929190611a1b565b6020604051808303816000875af115801561019a573d6000803e3d6000fd5b505050506040513d601f19601f820116820180604052508101906101be9190611a7c565b503373ffffffffffffffffffffffffffffffffffffffff167fd91b1e491a880123721b161dbbf8249668b0c546077d7ba4d0016441ca9d8f45836040516102059190611aa9565b60405180910390a25050565b600061021b610e18565b905061022633610e45565b8181600d0160003373ffffffffffffffffffffffffffffffffffffffff1673ffffffffffffffffffffffffffffffffffffffff168152602001908152602001600020600401600082825461027a9190611af3565b925050819055508060000160009054906101000a900473ffffffffffffffffffffffffffffffffffffffff1673ffffffffffffffffffffffffffffffffffffffff166323b872dd3330856040518463ffffffff1660e01b81526004016102e293929190611b49565b6020604051808303816000875af1158015610301573d6000803e3d6000fd5b505050506040513d601f19601f820116820180604052508101906103259190611a7c565b503373ffffffffffffffffffffffffffffffffffffffff167ff882a0847c57aefe6f6c7df2098dd0afd122eb0e886199e223651b8e45fda8238360405161036c9190611aa9565b60405180910390a25050565b6000610382610e18565b905061038d33610e45565b600085148061039c5750600086145b156103d3576040517fdec9919f00000000000000000000000000000000000000000000000000000000815260040160405180910390fd5b600081600d0160003373ffffffffffffffffffffffffffffffffffffffff1673ffffffffffffffffffffffffffffffffffffffff16815260200190815260200160002090508781600201908051906020019061043092919061164c565b50868160030181905550858160000181905550838160010181905550828160060181905550600085111561055f578482600d0160003373ffffffffffffffffffffffffffffffffffffffff1673ffffffffffffffffffffffffffffffffffffffff16815260200190815260200160002060040160008282546104b29190611af3565b925050819055508160000160009054906101000a900473ffffffffffffffffffffffffffffffffffffffff1673ffffffffffffffffffffffffffffffffffffffff166323b872dd3330886040518463ffffffff1660e01b815260040161051a93929190611b49565b6020604051808303816000875af1158015610539573d6000803e3d6000fd5b505050506040513d601f19601f8201168201806040525081019061055d9190611a7c565b505b3373ffffffffffffffffffffffffffffffffffffffff167f8497b060a6072f95dc9b98911879fc0378644d084b03c80f8acdb6385609deb882600201836003015484600001548560040154866001015487600601546040516105c696959493929190611c86565b60405180910390a25050505050505050565b60006105e2610e18565b9050600081600c0160008581526020019081526020016000209050600081600001540361064657836040517f018da68800000000000000000000000000000000000000000000000000000000815260040161063d9190611cfd565b60405180910390fd5b8060020160009054906101000a900460ff161561069a57836040517f9af72b860000000000000000000000000000000000000000000000000000000081526004016106919190611cfd565b60405180910390fd5b7fffffffffffffffffffffffffffffffffffffffffffffffffffffffffffffffff81600001540361070257836040517f7c6a6d700000000000000000000000000000000000000000000000000000000081526004016106f99190611cfd565b60405180910390fd5b8060000154421015610751574281600001546040517f48276809000000000000000000000000000000000000000000000000000000008152600401610748929190611d18565b60405180910390fd5b816004015481600001546107659190611af3565b4211156107be5742826004015482600001546107819190611af3565b6040517f4ccffab10000000000000000000000000000000000000000000000000000000081526004016107b5929190611d18565b60405180910390fd5b600082600c016000868152602001908152602001600020600a0160003373ffffffffffffffffffffffffffffffffffffffff1673ffffffffffffffffffffffffffffffffffffffff1681526020019081526020016000209050600081600201805461082890611baf565b90500361086c57336040517f82881f030000000000000000000000000000000000000000000000000000000081526004016108639190611d41565b60405180910390fd5b8060030160009054906101000a900460ff16156108c25733856040517fa40b44230000000000000000000000000000000000000000000000000000000081526004016108b9929190611d5c565b60405180910390fd5b6000801b81600101541461090d57336040517f7b06b1770000000000000000000000000000000000000000000000000000000081526004016109049190611d41565b60405180910390fd5b61091a848260020161101c565b610962573381600201856040517f5a95e91c00000000000000000000000000000000000000000000000000000000815260040161095993929190611e2b565b60405180910390fd5b83816001018190555061097585336112c1565b3373ffffffffffffffffffffffffffffffffffffffff16857f110eca32dd0b1dbdeaa29671186ba025abb2a6d9c193469a7214ee3244ef7404866040516109bc9190611cfd565b60405180910390a35050505050565b60006109d5610e18565b90506109e033611475565b60008514806109ef5750600086145b15610a26576040517fdec9919f00000000000000000000000000000000000000000000000000000000815260040160405180910390fd5b60006040518060e00160405280878152602001858152602001898152602001888152602001868152602001600081526020018481525090506000851115610b0d578160000160009054906101000a900473ffffffffffffffffffffffffffffffffffffffff1673ffffffffffffffffffffffffffffffffffffffff166323b872dd3330886040518463ffffffff1660e01b8152600401610ac893929190611b49565b6020604051808303816000875af1158015610ae7573d6000803e3d6000fd5b505050506040513d601f19601f82011682018060405250810190610b0b9190611a7c565b505b8082600d0160003373ffffffffffffffffffffffffffffffffffffffff1673ffffffffffffffffffffffffffffffffffffffff16815260200190815260200160002060008201518160000155602082015181600101556040820151816002019080519060200190610b7f92919061164c565b50606082015181600301556080820151816004015560a0820151816005015560c0820151816006015590505081600701339080600181540180825580915050600190039060005260206000200160009091909190916101000a81548173ffffffffffffffffffffffffffffffffffffffff021916908373ffffffffffffffffffffffffffffffffffffffff1602179055503373ffffffffffffffffffffffffffffffffffffffff167f6b3162bc849214e57423b31909892ac678c2245d7ee3c2642c173f7036452394826040015183606001518460000151856080015186602001518760c00151604051610c7896959493929190611ee0565b60405180910390a25050505050505050565b6000610c94610e18565b9050600081600e0160003373ffffffffffffffffffffffffffffffffffffffff1673ffffffffffffffffffffffffffffffffffffffff168152602001908152602001600020549050600082600e0160003373ffffffffffffffffffffffffffffffffffffffff1673ffffffffffffffffffffffffffffffffffffffff168152602001908152602001600020819055508160000160009054906101000a900473ffffffffffffffffffffffffffffffffffffffff1673ffffffffffffffffffffffffffffffffffffffff1663a9059cbb33836040518363ffffffff1660e01b8152600401610d82929190611a1b565b6020604051808303816000875af1158015610da1573d6000803e3d6000fd5b505050506040513d601f19601f82011682018060405250810190610dc59190611a7c565b503373ffffffffffffffffffffffffffffffffffffffff167fbc84835063c693975166f00cffb19f01a94c2db55b1bf259238c5da3594e506682604051610e0c9190611aa9565b60405180910390a25050565b6000807fa223312a216e34e17ad102c9d81ce3c0d9a16b0fce2a477c118cde325d32220690508091505090565b6000610e4f610e18565b9050600081600d0160008473ffffffffffffffffffffffffffffffffffffffff1673ffffffffffffffffffffffffffffffffffffffff1681526020019081526020016000206000015403610edd576001826040517f2eeb3571000000000000000000000000000000000000000000000000000000008152600401610ed4929190611f57565b60405180910390fd5b5050565b6000610eeb610e18565b905080600d0160008473ffffffffffffffffffffffffffffffffffffffff1673ffffffffffffffffffffffffffffffffffffffff16815260200190815260200160002060040154821115610fbc5780600d0160008473ffffffffffffffffffffffffffffffffffffffff1673ffffffffffffffffffffffffffffffffffffffff16815260200190815260200160002060040154826040517fa4e3bead000000000000000000000000000000000000000000000000000000008152600401610fb3929190611d18565b60405180910390fd5b8181600d0160008573ffffffffffffffffffffffffffffffffffffffff1673ffffffffffffffffffffffffffffffffffffffff16815260200190815260200160002060040160008282546110109190611f80565b92505081905550505050565b600080600183805461102d90611baf565b90506110399190611f80565b67ffffffffffffffff81111561105257611051611781565b5b6040519080825280601f01601f1916602001820160405280156110845781602001600182028036833780820191505090505b5090506000600190505b83805461109a90611baf565b905081101561116557838181546110b090611baf565b81106110bf576110be611fb4565b5b8154600116156110de5790600052602060002090602091828204019190065b9054901a7f010000000000000000000000000000000000000000000000000000000000000002826001836111129190611f80565b8151811061112357611122611fb4565b5b60200101907effffffffffffffffffffffffffffffffffffffffffffffffffffffffffffff1916908160001a905350808061115d90611fe3565b91505061108e565b5060007f79be667ef9dcbbac55a06295ce870b07029bfcdb2dce28d959f2815b16f81798905060007f483ada7726a3c4655da4fbfc0e1108a8fd17b448a68554199c47d08ffb10d4b8905060007ffffffffffffffffffffffffffffffffebaaedce6af48a03bbfd25e8cd03641419050600060016000806002866111e9919061205a565b036111f557601b6111f8565b601c5b8660001b858061120b5761120a61202b565b5b888d60001c0960001b6040516000815260200160405260405161123194939291906120ef565b6020604051602081039080840390855afa158015611253573d6000803e3d6000fd5b505050602060405103519050600073ffffffffffffffffffffffffffffffffffffffff868051906020012060001c1690508173ffffffffffffffffffffffffffffffffffffffff168173ffffffffffffffffffffffffffffffffffffffff1614965050505050505092915050565b60006112cb610e18565b9050600081600c0160008581526020019081526020016000209050600082600c016000868152602001908152602001600020600a0160008573ffffffffffffffffffffffffffffffffffffffff1673ffffffffffffffffffffffffffffffffffffffff16815260200190815260200160002090506000826001015483600001546113559190611f80565b82600001546113649190612134565b90508260020160029054906101000a900460ff1661138f5781600401548161138c9190611af3565b90505b6000606484600b0154836113a39190612134565b6113ad919061218e565b90506113b98682611511565b8085600d0160008873ffffffffffffffffffffffffffffffffffffffff1673ffffffffffffffffffffffffffffffffffffffff168152602001908152602001600020600401600082825461140d9190611af3565b925050819055508185600e0160008873ffffffffffffffffffffffffffffffffffffffff1673ffffffffffffffffffffffffffffffffffffffff16815260200190815260200160002060008282546114659190611af3565b9250508190555050505050505050565b600061147f610e18565b9050600081600d0160008473ffffffffffffffffffffffffffffffffffffffff1673ffffffffffffffffffffffffffffffffffffffff168152602001908152602001600020600001541461150d576000826040517f2eeb3571000000000000000000000000000000000000000000000000000000008152600401611504929190611f57565b60405180910390fd5b5050565b600061151b610e18565b905080600d0160008473ffffffffffffffffffffffffffffffffffffffff1673ffffffffffffffffffffffffffffffffffffffff168152602001908152602001600020600501548211156115ec5780600d0160008473ffffffffffffffffffffffffffffffffffffffff1673ffffffffffffffffffffffffffffffffffffffff16815260200190815260200160002060050154826040517faf5a111b0000000000000000000000000000000000000000000000000000000081526004016115e3929190611d18565b60405180910390fd5b8181600d0160008573ffffffffffffffffffffffffffffffffffffffff1673ffffffffffffffffffffffffffffffffffffffff16815260200190815260200160002060050160008282546116409190611f80565b92505081905550505050565b82805461165890611baf565b90600052602060002090601f01602090048101928261167a57600085556116c1565b82601f1061169357805160ff19168380011785556116c1565b828001600101855582156116c1579182015b828111156116c05782518255916020019190600101906116a5565b5b5090506116ce91906116d2565b5090565b5b808211156116eb5760008160009055506001016116d3565b5090565b6000604051905090565b600080fd5b600080fd5b6000819050919050565b61171681611703565b811461172157600080fd5b50565b6000813590506117338161170d565b92915050565b60006020828403121561174f5761174e6116f9565b5b600061175d84828501611724565b91505092915050565b600080fd5b600080fd5b6000601f19601f8301169050919050565b7f4e487b7100000000000000000000000000000000000000000000000000000000600052604160045260246000fd5b6117b982611770565b810181811067ffffffffffffffff821117156117d8576117d7611781565b5b80604052505050565b60006117eb6116ef565b90506117f782826117b0565b919050565b600067ffffffffffffffff82111561181757611816611781565b5b61182082611770565b9050602081019050919050565b82818337600083830152505050565b600061184f61184a846117fc565b6117e1565b90508281526020810184848401111561186b5761186a61176b565b5b61187684828561182d565b509392505050565b600082601f83011261189357611892611766565b5b81356118a384826020860161183c565b91505092915050565b60008060008060008060c087890312156118c9576118c86116f9565b5b600087013567ffffffffffffffff8111156118e7576118e66116fe565b5b6118f389828a0161187e565b965050602061190489828a01611724565b955050604061191589828a01611724565b945050606061192689828a01611724565b935050608061193789828a01611724565b92505060a061194889828a01611724565b9150509295509295509295565b6000819050919050565b61196881611955565b811461197357600080fd5b50565b6000813590506119858161195f565b92915050565b600080604083850312156119a2576119a16116f9565b5b60006119b085828601611976565b92505060206119c185828601611976565b9150509250929050565b600073ffffffffffffffffffffffffffffffffffffffff82169050919050565b60006119f6826119cb565b9050919050565b611a06816119eb565b82525050565b611a1581611703565b82525050565b6000604082019050611a3060008301856119fd565b611a3d6020830184611a0c565b9392505050565b60008115159050919050565b611a5981611a44565b8114611a6457600080fd5b50565b600081519050611a7681611a50565b92915050565b600060208284031215611a9257611a916116f9565b5b6000611aa084828501611a67565b91505092915050565b6000602082019050611abe6000830184611a0c565b92915050565b7f4e487b7100000000000000000000000000000000000000000000000000000000600052601160045260246000fd5b6000611afe82611703565b9150611b0983611703565b9250827fffffffffffffffffffffffffffffffffffffffffffffffffffffffffffffffff03821115611b3e57611b3d611ac4565b5b828201905092915050565b6000606082019050611b5e60008301866119fd565b611b6b60208301856119fd565b611b786040830184611a0c565b949350505050565b7f4e487b7100000000000000000000000000000000000000000000000000000000600052602260045260246000fd5b60006002820490506001821680611bc757607f821691505b602082108103611bda57611bd9611b80565b5b50919050565b600082825260208201905092915050565b60008190508160005260206000209050919050565b60008154611c1381611baf565b611c1d8186611be0565b94506001821660008114611c385760018114611c4a57611c7d565b60ff1983168652602086019350611c7d565b611c5385611bf1565b60005b83811015611c7557815481890152600182019150602081019050611c56565b808801955050505b50505092915050565b600060c0820190508181036000830152611ca08189611c06565b9050611caf6020830188611a0c565b611cbc6040830187611a0c565b611cc96060830186611a0c565b611cd66080830185611a0c565b611ce360a0830184611a0c565b979650505050505050565b611cf781611955565b82525050565b6000602082019050611d126000830184611cee565b92915050565b6000604082019050611d2d6000830185611a0c565b611d3a6020830184611a0c565b9392505050565b6000602082019050611d5660008301846119fd565b92915050565b6000604082019050611d7160008301856119fd565b611d7e6020830184611cee565b9392505050565b600082825260208201905092915050565b60008190508160005260206000209050919050565b60008154611db881611baf565b611dc28186611d85565b94506001821660008114611ddd5760018114611def57611e22565b60ff1983168652602086019350611e22565b611df885611d96565b60005b83811015611e1a57815481890152600182019150602081019050611dfb565b808801955050505b50505092915050565b6000606082019050611e4060008301866119fd565b8181036020830152611e528185611dab565b9050611e616040830184611cee565b949350505050565b600081519050919050565b60005b83811015611e92578082015181840152602081019050611e77565b83811115611ea1576000848401525b50505050565b6000611eb282611e69565b611ebc8185611be0565b9350611ecc818560208601611e74565b611ed581611770565b840191505092915050565b600060c0820190508181036000830152611efa8189611ea7565b9050611f096020830188611a0c565b611f166040830187611a0c565b611f236060830186611a0c565b611f306080830185611a0c565b611f3d60a0830184611a0c565b979650505050505050565b611f5181611a44565b82525050565b6000604082019050611f6c6000830185611f48565b611f7960208301846119fd565b9392505050565b6000611f8b82611703565b9150611f9683611703565b925082821015611fa957611fa8611ac4565b5b828203905092915050565b7f4e487b7100000000000000000000000000000000000000000000000000000000600052603260045260246000fd5b6000611fee82611703565b91507fffffffffffffffffffffffffffffffffffffffffffffffffffffffffffffffff82036120205761201f611ac4565b5b600182019050919050565b7f4e487b7100000000000000000000000000000000000000000000000000000000600052601260045260246000fd5b600061206582611703565b915061207083611703565b9250826120805761207f61202b565b5b828206905092915050565b6000819050919050565b60008160001b9050919050565b60006120bd6120b86120b38461208b565b612095565b611955565b9050919050565b6120cd816120a2565b82525050565b600060ff82169050919050565b6120e9816120d3565b82525050565b600060808201905061210460008301876120c4565b61211160208301866120e0565b61211e6040830185611cee565b61212b6060830184611cee565b95945050505050565b600061213f82611703565b915061214a83611703565b9250817fffffffffffffffffffffffffffffffffffffffffffffffffffffffffffffffff048311821515161561218357612182611ac4565b5b828202905092915050565b600061219982611703565b91506121a483611703565b9250826121b4576121b361202b565b5b82820490509291505056fea264697066735822122055abd0289081aeae8c2a6ba567f1af8090e87633be38ea3740d7570bff61b6ea64736f6c634300080d0033",
  "devdoc": {
    "errors": {
      "ArchaeologistAlreadyPublishedPrivateKey(address)": [
        {
          "params": {
            "archaeologistAddress": "address of publishing archaeologist"
          }
        }
      ],
      "ArchaeologistHasBeenAccused(address,bytes32)": [
        {
          "params": {
            "archaeologistAddress": "Address of accused archaeologist who is attempting to publish their private key",
            "sarcoId": "ID of sarcophagus archaeologist has attempted to publish a key on"
          }
        }
      ],
      "ArchaeologistPublishedIncorrectPrivateKey(address,bytes,bytes32)": [
        {
          "params": {
            "archaeologistAddress": "address of publishing archaeologist",
            "privateKey": "privateKey the archaeologist has attempted to publish",
            "publicKey": "publicKey stored for archaeologist on the sarcophagus"
          }
        }
      ],
      "TooEarlyForPublish(uint256,uint256)": [
        {
          "params": {
            "currentTime": "Timestamp of the failed publish attempt",
            "resurrectionTime": "Time after which the sarcophagus can be resurrected"
          }
        }
      ],
      "TooLateForPublish(uint256,uint256)": [
        {
          "params": {
            "currentTime": "Timestamp of the failed publish attempt",
            "publishDeadline": "Time after which the sarcophagus can no longer be resurrected  (resurrectionTime + gracePeriod)"
          }
        }
      ]
    },
    "events": {
      "PublishPrivateKey(bytes32,bytes32,address)": {
        "params": {
          "privateKey": "private key that has been published",
          "sarcoId": "ID of sarcophagus archaeologist has published the private key on"
        }
      }
    },
    "kind": "dev",
    "methods": {
      "depositFreeBond(uint256)": {
        "params": {
          "amount": "The amount to deposit"
        }
      },
      "publishPrivateKey(bytes32,bytes32)": {
        "params": {
          "privateKey": "The private key the archaeologist is publishing",
          "sarcoId": "The identifier of the sarcophagus for which the archaeologist is responsible"
        }
      },
      "registerArchaeologist(string,uint256,uint256,uint256,uint256,uint256)": {
        "params": {
          "curseFee": "The fee the archaeologist sets to roughly cover the cost of a publishPrivateKey transaction",
          "freeBond": "How much bond the archaeologist wants to deposit during the register call (if any)",
          "maximumResurrectionTime": "The time beyond which the archaeologist is not willing to accept new curses or rewraps",
          "maximumRewrapInterval": "The longest interval of time from a rewrap time the arch will accept for a resurrection",
          "minimumDiggingFeePerSecond": "The archaeologist's minimum amount to earn per second for being cursed",
          "peerId": "The libp2p identifier for the archaeologist"
        }
      },
      "updateArchaeologist(string,uint256,uint256,uint256,uint256,uint256)": {
        "params": {
          "curseFee": "The fee the archaeologist sets to roughly cover the cost of a publishPrivateKey transaction",
          "freeBond": "How much bond the archaeologist wants to deposit during the update call (if any)",
          "maximumRewrapInterval": "The longest interval of time from a rewrap time the arch will accept for a resurrection",
          "minimumDiggingFeePerSecond": "The archaeologist's minimum amount to earn per second for being cursed",
          "peerId": "The libp2p identifier for the archaeologist"
        }
      },
      "withdrawFreeBond(uint256)": {
        "params": {
          "amount": "The amount to withdraw"
        }
      }
    },
    "version": 1
  },
  "userdoc": {
    "errors": {
      "ArchaeologistAlreadyPublishedPrivateKey(address)": [
        {
          "notice": "Archaeologist has attempted to publish a key for a sarcophagus twice"
        }
      ],
      "ArchaeologistHasBeenAccused(address,bytes32)": [
        {
          "notice": "An archaeologist that has already been successfully accused has attempted to publish their private key"
        }
      ],
      "ArchaeologistPublishedIncorrectPrivateKey(address,bytes,bytes32)": [
        {
          "notice": "Archaeologist has attempted to publish the incorrect private key for a sarcophagus"
        }
      ],
      "CannotSetZeroProfileValue()": [
        {
          "notice": "Archaeologist has attempted to set a zero minimumDiggingFeePerSecond or maximumRewrapInterval"
        }
      ],
      "TooEarlyForPublish(uint256,uint256)": [
        {
          "notice": "Archaeologist has attempted to publish a key before the resurrection time"
        }
      ],
      "TooLateForPublish(uint256,uint256)": [
        {
          "notice": "Archaeologist has attempted to publish a key after the end of the resurrection window"
        }
      ]
    },
    "events": {
      "PublishPrivateKey(bytes32,bytes32,address)": {
        "notice": "Emitted when an archaeologist successfully publishes their private key for a sarcophagus"
      }
    },
    "kind": "user",
    "methods": {
      "depositFreeBond(uint256)": {
        "notice": "Deposits an archaeologist's free bond to the contract."
      },
      "publishPrivateKey(bytes32,bytes32)": {
        "notice": "Publishes the private key for which the archaeologist is responsible during the sarcophagus resurrection window. Pays digging fees to the archaeologist and releases their locked bond. Cannot be called on a compromised or buried sarcophagus."
      },
      "registerArchaeologist(string,uint256,uint256,uint256,uint256,uint256)": {
        "notice": "Registers the archaeologist profile"
      },
      "updateArchaeologist(string,uint256,uint256,uint256,uint256,uint256)": {
        "notice": "Updates the archaeologist profile"
      },
      "withdrawFreeBond(uint256)": {
        "notice": "Withdraws an archaeologist's free bond from the contract."
      },
      "withdrawReward()": {
        "notice": "Withdraws all rewards from an archaeologist's reward pool"
      }
    },
    "version": 1
  },
  "storageLayout": {
    "storage": [],
    "types": null
  }
}