{
  "address": "0xaDCbFdA02931eEE74a6AeC0106cFd48ACa90cA6E",
  "abi": [
    {
      "inputs": [
        {
          "internalType": "bool",
          "name": "exists",
          "type": "bool"
        },
        {
          "internalType": "address",
          "name": "archaeologist",
          "type": "address"
        }
      ],
      "name": "ArchaeologistProfileExistsShouldBe",
      "type": "error"
    },
    {
      "inputs": [
        {
          "internalType": "bytes32",
          "name": "sarcoId",
          "type": "bytes32"
        }
      ],
      "name": "SarcophagusDoesNotExist",
      "type": "error"
    },
    {
      "inputs": [
        {
          "internalType": "address",
          "name": "archaeologist",
          "type": "address"
        }
      ],
      "name": "getArchaeologistProfile",
      "outputs": [
        {
          "components": [
            {
              "internalType": "uint256",
              "name": "maximumRewrapInterval",
              "type": "uint256"
            },
            {
              "internalType": "uint256",
              "name": "maximumResurrectionTime",
              "type": "uint256"
            },
            {
              "internalType": "string",
              "name": "peerId",
              "type": "string"
            },
            {
              "internalType": "uint256",
              "name": "minimumDiggingFeePerSecond",
              "type": "uint256"
            },
            {
              "internalType": "uint256",
              "name": "freeBond",
              "type": "uint256"
            },
            {
              "internalType": "uint256",
              "name": "cursedBond",
              "type": "uint256"
            }
          ],
          "internalType": "struct LibTypes.ArchaeologistProfile",
          "name": "",
          "type": "tuple"
        }
      ],
      "stateMutability": "view",
      "type": "function"
    },
    {
      "inputs": [
        {
          "internalType": "uint256",
          "name": "index",
          "type": "uint256"
        }
      ],
      "name": "getArchaeologistProfileAddressAtIndex",
      "outputs": [
        {
          "internalType": "address",
          "name": "",
          "type": "address"
        }
      ],
      "stateMutability": "view",
      "type": "function"
    },
    {
      "inputs": [],
      "name": "getArchaeologistProfileAddresses",
      "outputs": [
        {
          "internalType": "address[]",
          "name": "",
          "type": "address[]"
        }
      ],
      "stateMutability": "view",
      "type": "function"
    },
    {
      "inputs": [
        {
          "internalType": "address[]",
          "name": "addresses",
          "type": "address[]"
        }
      ],
      "name": "getArchaeologistProfiles",
      "outputs": [
        {
          "components": [
            {
              "internalType": "uint256",
              "name": "maximumRewrapInterval",
              "type": "uint256"
            },
            {
              "internalType": "uint256",
              "name": "maximumResurrectionTime",
              "type": "uint256"
            },
            {
              "internalType": "string",
              "name": "peerId",
              "type": "string"
            },
            {
              "internalType": "uint256",
              "name": "minimumDiggingFeePerSecond",
              "type": "uint256"
            },
            {
              "internalType": "uint256",
              "name": "freeBond",
              "type": "uint256"
            },
            {
              "internalType": "uint256",
              "name": "cursedBond",
              "type": "uint256"
            }
          ],
          "internalType": "struct LibTypes.ArchaeologistProfile[]",
          "name": "",
          "type": "tuple[]"
        }
      ],
      "stateMutability": "view",
      "type": "function"
    },
    {
      "inputs": [
        {
          "internalType": "address",
          "name": "archaeologist",
          "type": "address"
        }
      ],
      "name": "getArchaeologistSarcophagi",
      "outputs": [
        {
          "internalType": "bytes32[]",
          "name": "",
          "type": "bytes32[]"
        }
      ],
      "stateMutability": "view",
      "type": "function"
    },
    {
      "inputs": [
        {
          "internalType": "address",
          "name": "archaeologist",
          "type": "address"
        }
      ],
      "name": "getCursedBond",
      "outputs": [
        {
          "internalType": "uint256",
          "name": "",
          "type": "uint256"
        }
      ],
      "stateMutability": "view",
      "type": "function"
    },
    {
      "inputs": [],
      "name": "getCursedBondPercentage",
      "outputs": [
        {
          "internalType": "uint256",
          "name": "",
          "type": "uint256"
        }
      ],
      "stateMutability": "view",
      "type": "function"
    },
    {
      "inputs": [],
      "name": "getEmbalmerClaimWindow",
      "outputs": [
        {
          "internalType": "uint256",
          "name": "",
          "type": "uint256"
        }
      ],
      "stateMutability": "view",
      "type": "function"
    },
    {
      "inputs": [
        {
          "internalType": "address",
          "name": "embalmer",
          "type": "address"
        }
      ],
      "name": "getEmbalmerSarcophagi",
      "outputs": [
        {
          "internalType": "bytes32[]",
          "name": "",
          "type": "bytes32[]"
        }
      ],
      "stateMutability": "view",
      "type": "function"
    },
    {
      "inputs": [],
      "name": "getExpirationThreshold",
      "outputs": [
        {
          "internalType": "uint256",
          "name": "",
          "type": "uint256"
        }
      ],
      "stateMutability": "view",
      "type": "function"
    },
    {
      "inputs": [
        {
          "internalType": "address",
          "name": "archaeologist",
          "type": "address"
        }
      ],
      "name": "getFreeBond",
      "outputs": [
        {
          "internalType": "uint256",
          "name": "",
          "type": "uint256"
        }
      ],
      "stateMutability": "view",
      "type": "function"
    },
    {
      "inputs": [],
      "name": "getGracePeriod",
      "outputs": [
        {
          "internalType": "uint256",
          "name": "",
          "type": "uint256"
        }
      ],
      "stateMutability": "view",
      "type": "function"
    },
    {
      "inputs": [],
      "name": "getProtocolFeeBasePercentage",
      "outputs": [
        {
          "internalType": "uint256",
          "name": "",
          "type": "uint256"
        }
      ],
      "stateMutability": "view",
      "type": "function"
    },
    {
      "inputs": [
        {
          "internalType": "address",
          "name": "recipient",
          "type": "address"
        }
      ],
      "name": "getRecipientSarcophagi",
      "outputs": [
        {
          "internalType": "bytes32[]",
          "name": "",
          "type": "bytes32[]"
        }
      ],
      "stateMutability": "view",
      "type": "function"
    },
    {
      "inputs": [
        {
          "internalType": "address",
          "name": "archaeologist",
          "type": "address"
        }
      ],
      "name": "getRewards",
      "outputs": [
        {
          "internalType": "uint256",
          "name": "",
          "type": "uint256"
        }
      ],
      "stateMutability": "view",
      "type": "function"
    },
    {
      "inputs": [
        {
          "internalType": "bytes32",
          "name": "sarcoId",
          "type": "bytes32"
        }
      ],
      "name": "getSarcophagus",
      "outputs": [
        {
          "components": [
            {
              "internalType": "uint256",
              "name": "resurrectionTime",
              "type": "uint256"
            },
            {
              "internalType": "uint256",
              "name": "previousRewrapTime",
              "type": "uint256"
            },
            {
              "internalType": "bool",
              "name": "isCompromised",
              "type": "bool"
            },
            {
              "internalType": "bool",
              "name": "isCleaned",
              "type": "bool"
            },
            {
              "internalType": "string",
              "name": "name",
              "type": "string"
            },
            {
              "internalType": "uint8",
              "name": "threshold",
              "type": "uint8"
            },
            {
              "internalType": "uint256",
              "name": "maximumRewrapInterval",
              "type": "uint256"
            },
            {
              "internalType": "uint256",
              "name": "maximumResurrectionTime",
              "type": "uint256"
            },
            {
              "internalType": "uint256",
              "name": "cursedBondPercentage",
              "type": "uint256"
            },
            {
              "internalType": "string",
              "name": "arweaveTxId",
              "type": "string"
            },
            {
              "internalType": "address",
              "name": "embalmerAddress",
              "type": "address"
            },
            {
              "internalType": "address",
              "name": "recipientAddress",
              "type": "address"
            },
            {
              "internalType": "address[]",
              "name": "archaeologistAddresses",
              "type": "address[]"
            },
            {
              "internalType": "uint8",
              "name": "publishedPrivateKeyCount",
              "type": "uint8"
            },
            {
              "internalType": "bool",
              "name": "hasLockedBond",
              "type": "bool"
            }
          ],
          "internalType": "struct ViewStateFacet.SarcophagusResponse",
          "name": "",
          "type": "tuple"
        }
      ],
      "stateMutability": "view",
      "type": "function"
    },
    {
      "inputs": [
        {
          "internalType": "bytes32",
          "name": "sarcoId",
          "type": "bytes32"
        },
        {
          "internalType": "address",
          "name": "archaeologist",
          "type": "address"
        }
      ],
      "name": "getSarcophagusArchaeologist",
      "outputs": [
        {
          "components": [
            {
              "internalType": "uint256",
              "name": "diggingFeePerSecond",
              "type": "uint256"
            },
            {
              "internalType": "bytes32",
              "name": "privateKey",
              "type": "bytes32"
            },
            {
              "internalType": "bytes",
              "name": "publicKey",
              "type": "bytes"
            },
            {
              "internalType": "bool",
              "name": "isAccused",
              "type": "bool"
            }
          ],
          "internalType": "struct LibTypes.CursedArchaeologist",
          "name": "",
          "type": "tuple"
        }
      ],
      "stateMutability": "view",
      "type": "function"
    },
    {
      "inputs": [],
      "name": "getTotalProtocolFees",
      "outputs": [
        {
          "internalType": "uint256",
          "name": "",
          "type": "uint256"
        }
      ],
      "stateMutability": "view",
      "type": "function"
    }
  ],
  "transactionHash": "0x22f4c6c578d91a826ca5a842664427065bb3d729a19e377735e174b2ede73d47",
  "args": [],
  "numDeployments": 4,
  "solcInputHash": "50efe6a3d8d462e9abce44badd6273ba",
  "bytecode": "0x608060405234801561001057600080fd5b506120e9806100206000396000f3fe608060405234801561001057600080fd5b50600436106101165760003560e01c80639c545639116100a2578063dbd1838811610071578063dbd1838814610331578063dc231f431461034f578063dcfcb9011461037f578063de116f061461039d578063ef60e4e7146103cd57610116565b80639c545639146102955780639fdaded1146102b3578063a9328dcc146102d1578063c34e9bff1461030157610116565b806357babbaf116100e957806357babbaf146101b757806379ee54f7146101e75780637aa9fd2f1461021757806387927ce6146102355780638fbd55d21461026557610116565b806331baea671461011b5780633fbb89301461013957806342e10bc8146101575780634d0b676714610187575b600080fd5b6101236103fd565b604051610130919061143e565b60405180910390f35b610141610415565b60405161014e9190611549565b60405180910390f35b610171600480360381019061016c91906115ab565b6104b2565b60405161017e9190611709565b60405180910390f35b6101a1600480360381019061019c91906115ab565b6105e7565b6040516101ae91906117f3565b60405180910390f35b6101d160048036038101906101cc9190611841565b61068d565b6040516101de919061187d565b60405180910390f35b61020160048036038101906101fc91906115ab565b6106e3565b60405161020e919061143e565b60405180910390f35b61021f61073a565b60405161022c919061143e565b60405180910390f35b61024f600480360381019061024a91906115ab565b610752565b60405161025c919061143e565b60405180910390f35b61027f600480360381019061027a91906115ab565b6107ac565b60405161028c919061143e565b60405180910390f35b61029d610806565b6040516102aa919061143e565b60405180910390f35b6102bb61081e565b6040516102c8919061143e565b60405180910390f35b6102eb60048036038101906102e691906119e0565b610836565b6040516102f89190611b74565b60405180910390f35b61031b600480360381019061031691906115ab565b610a77565b60405161032891906117f3565b60405180910390f35b610339610b1d565b604051610346919061143e565b60405180910390f35b61036960048036038101906103649190611bc2565b610b35565b6040516103769190611cd5565b60405180910390f35b610387610c73565b604051610394919061143e565b60405180910390f35b6103b760048036038101906103b29190611cf7565b610c8b565b6040516103c49190611f00565b60405180910390f35b6103e760048036038101906103e291906115ab565b6111a5565b6040516103f491906117f3565b60405180910390f35b60008061040861124b565b9050806006015491505090565b6060600061042161124b565b9050806007018054806020026020016040519081016040528092919081815260200182805480156104a757602002820191906000526020600020905b8160009054906101000a900473ffffffffffffffffffffffffffffffffffffffff1673ffffffffffffffffffffffffffffffffffffffff168152602001906001019080831161045d575b505050505091505090565b6104ba611314565b60006104c461124b565b90506104cf83611278565b80600d0160008473ffffffffffffffffffffffffffffffffffffffff1673ffffffffffffffffffffffffffffffffffffffff1681526020019081526020016000206040518060c0016040529081600082015481526020016001820154815260200160028201805461053f90611f51565b80601f016020809104026020016040519081016040528092919081815260200182805461056b90611f51565b80156105b85780601f1061058d576101008083540402835291602001916105b8565b820191906000526020600020905b81548152906001019060200180831161059b57829003601f168201915b505050505081526020016003820154815260200160048201548152602001600582015481525050915050919050565b606060006105f361124b565b905080600a0160008473ffffffffffffffffffffffffffffffffffffffff1673ffffffffffffffffffffffffffffffffffffffff16815260200190815260200160002080548060200260200160405190810160405280929190818152602001828054801561068057602002820191906000526020600020905b81548152602001906001019080831161066c575b5050505050915050919050565b60008061069861124b565b90508060070183815481106106b0576106af611f82565b5b9060005260206000200160009054906101000a900473ffffffffffffffffffffffffffffffffffffffff16915050919050565b6000806106ee61124b565b905080600e0160008473ffffffffffffffffffffffffffffffffffffffff1673ffffffffffffffffffffffffffffffffffffffff16815260200190815260200160002054915050919050565b60008061074561124b565b9050806005015491505090565b60008061075d61124b565b905080600d0160008473ffffffffffffffffffffffffffffffffffffffff1673ffffffffffffffffffffffffffffffffffffffff16815260200190815260200160002060050154915050919050565b6000806107b761124b565b905080600d0160008473ffffffffffffffffffffffffffffffffffffffff1673ffffffffffffffffffffffffffffffffffffffff16815260200190815260200160002060040154915050919050565b60008061081161124b565b9050806001015491505090565b60008061082961124b565b9050806002015491505090565b6060600061084261124b565b90506000835167ffffffffffffffff8111156108615761086061189d565b5b60405190808252806020026020018201604052801561089a57816020015b610887611314565b81526020019060019003908161087f5790505b50905060005b8451811015610a6c57600083600d0160008784815181106108c4576108c3611f82565b5b602002602001015173ffffffffffffffffffffffffffffffffffffffff1673ffffffffffffffffffffffffffffffffffffffff168152602001908152602001600020600001540315610a595782600d01600086838151811061092957610928611f82565b5b602002602001015173ffffffffffffffffffffffffffffffffffffffff1673ffffffffffffffffffffffffffffffffffffffff1681526020019081526020016000206040518060c0016040529081600082015481526020016001820154815260200160028201805461099a90611f51565b80601f01602080910402602001604051908101604052809291908181526020018280546109c690611f51565b8015610a135780601f106109e857610100808354040283529160200191610a13565b820191906000526020600020905b8154815290600101906020018083116109f657829003601f168201915b505050505081526020016003820154815260200160048201548152602001600582015481525050828281518110610a4d57610a4c611f82565b5b60200260200101819052505b8080610a6490611fe0565b9150506108a0565b508092505050919050565b60606000610a8361124b565b90508060080160008473ffffffffffffffffffffffffffffffffffffffff1673ffffffffffffffffffffffffffffffffffffffff168152602001908152602001600020805480602002602001604051908101604052809291908181526020018280548015610b1057602002820191906000526020600020905b815481526020019060010190808311610afc575b5050505050915050919050565b600080610b2861124b565b9050806004015491505090565b610b3d61134a565b6000610b4761124b565b905080600c016000858152602001908152602001600020600a0160008473ffffffffffffffffffffffffffffffffffffffff1673ffffffffffffffffffffffffffffffffffffffff1681526020019081526020016000206040518060800160405290816000820154815260200160018201548152602001600282018054610bcd90611f51565b80601f0160208091040260200160405190810160405280929190818152602001828054610bf990611f51565b8015610c465780601f10610c1b57610100808354040283529160200191610c46565b820191906000526020600020905b815481529060010190602001808311610c2957829003601f168201915b505050505081526020016003820160009054906101000a900460ff16151515158152505091505092915050565b600080610c7e61124b565b9050806003015491505090565b610c93611377565b6000610c9d61124b565b9050600081600c01600085815260200190815260200160002090506000816000015403610d0157836040517f018da688000000000000000000000000000000000000000000000000000000008152600401610cf89190612037565b60405180910390fd5b60008060005b8360090180549050811015610ece576000801b84600a016000866009018481548110610d3657610d35611f82565b5b9060005260206000200160009054906101000a900473ffffffffffffffffffffffffffffffffffffffff1673ffffffffffffffffffffffffffffffffffffffff1673ffffffffffffffffffffffffffffffffffffffff1681526020019081526020016000206001015414610db7578280610daf90612052565b935050610ebb565b83600a016000856009018381548110610dd357610dd2611f82565b5b9060005260206000200160009054906101000a900473ffffffffffffffffffffffffffffffffffffffff1673ffffffffffffffffffffffffffffffffffffffff1673ffffffffffffffffffffffffffffffffffffffff16815260200190815260200160002060030160009054906101000a900460ff16158015610e6557508360020160009054906101000a900460ff16155b8015610e8057508360020160019054906101000a900460ff16155b8015610eb057507fffffffffffffffffffffffffffffffffffffffffffffffffffffffffffffffff846000015414155b15610eba57600191505b5b8080610ec690611fe0565b915050610d07565b50604051806101e0016040528084600001548152602001846001015481526020018460020160009054906101000a900460ff16151581526020018460020160019054906101000a900460ff1615158152602001846003018054610f3090611f51565b80601f0160208091040260200160405190810160405280929190818152602001828054610f5c90611f51565b8015610fa95780601f10610f7e57610100808354040283529160200191610fa9565b820191906000526020600020905b815481529060010190602001808311610f8c57829003601f168201915b505050505081526020018460020160029054906101000a900460ff1660ff168152602001846004015481526020018460050154815260200184600b01548152602001846006018054610ffa90611f51565b80601f016020809104026020016040519081016040528092919081815260200182805461102690611f51565b80156110735780601f1061104857610100808354040283529160200191611073565b820191906000526020600020905b81548152906001019060200180831161105657829003601f168201915b505050505081526020018460070160009054906101000a900473ffffffffffffffffffffffffffffffffffffffff1673ffffffffffffffffffffffffffffffffffffffff1681526020018460080160009054906101000a900473ffffffffffffffffffffffffffffffffffffffff1673ffffffffffffffffffffffffffffffffffffffff1681526020018460090180548060200260200160405190810160405280929190818152602001828054801561118157602002820191906000526020600020905b8160009054906101000a900473ffffffffffffffffffffffffffffffffffffffff1673ffffffffffffffffffffffffffffffffffffffff1681526020019060010190808311611137575b505050505081526020018360ff168152602001821515815250945050505050919050565b606060006111b161124b565b90508060090160008473ffffffffffffffffffffffffffffffffffffffff1673ffffffffffffffffffffffffffffffffffffffff16815260200190815260200160002080548060200260200160405190810160405280929190818152602001828054801561123e57602002820191906000526020600020905b81548152602001906001019080831161122a575b5050505050915050919050565b6000807f1464b352a39efde2dd07892d0f2f274ce8052e8749182fc4ead14ba82366194490508091505090565b600061128261124b565b9050600081600d0160008473ffffffffffffffffffffffffffffffffffffffff1673ffffffffffffffffffffffffffffffffffffffff1681526020019081526020016000206000015403611310576001826040517f2eeb357100000000000000000000000000000000000000000000000000000000815260040161130792919061208a565b60405180910390fd5b5050565b6040518060c001604052806000815260200160008152602001606081526020016000815260200160008152602001600081525090565b60405180608001604052806000815260200160008019168152602001606081526020016000151581525090565b604051806101e00160405280600081526020016000815260200160001515815260200160001515815260200160608152602001600060ff16815260200160008152602001600081526020016000815260200160608152602001600073ffffffffffffffffffffffffffffffffffffffff168152602001600073ffffffffffffffffffffffffffffffffffffffff16815260200160608152602001600060ff1681526020016000151581525090565b6000819050919050565b61143881611425565b82525050565b6000602082019050611453600083018461142f565b92915050565b600081519050919050565b600082825260208201905092915050565b6000819050602082019050919050565b600073ffffffffffffffffffffffffffffffffffffffff82169050919050565b60006114b082611485565b9050919050565b6114c0816114a5565b82525050565b60006114d283836114b7565b60208301905092915050565b6000602082019050919050565b60006114f682611459565b6115008185611464565b935061150b83611475565b8060005b8381101561153c57815161152388826114c6565b975061152e836114de565b92505060018101905061150f565b5085935050505092915050565b6000602082019050818103600083015261156381846114eb565b905092915050565b6000604051905090565b600080fd5b600080fd5b611588816114a5565b811461159357600080fd5b50565b6000813590506115a58161157f565b92915050565b6000602082840312156115c1576115c0611575565b5b60006115cf84828501611596565b91505092915050565b6115e181611425565b82525050565b600081519050919050565b600082825260208201905092915050565b60005b83811015611621578082015181840152602081019050611606565b83811115611630576000848401525b50505050565b6000601f19601f8301169050919050565b6000611652826115e7565b61165c81856115f2565b935061166c818560208601611603565b61167581611636565b840191505092915050565b600060c08301600083015161169860008601826115d8565b5060208301516116ab60208601826115d8565b50604083015184820360408601526116c38282611647565b91505060608301516116d860608601826115d8565b5060808301516116eb60808601826115d8565b5060a08301516116fe60a08601826115d8565b508091505092915050565b600060208201905081810360008301526117238184611680565b905092915050565b600081519050919050565b600082825260208201905092915050565b6000819050602082019050919050565b6000819050919050565b61176a81611757565b82525050565b600061177c8383611761565b60208301905092915050565b6000602082019050919050565b60006117a08261172b565b6117aa8185611736565b93506117b583611747565b8060005b838110156117e65781516117cd8882611770565b97506117d883611788565b9250506001810190506117b9565b5085935050505092915050565b6000602082019050818103600083015261180d8184611795565b905092915050565b61181e81611425565b811461182957600080fd5b50565b60008135905061183b81611815565b92915050565b60006020828403121561185757611856611575565b5b60006118658482850161182c565b91505092915050565b611877816114a5565b82525050565b6000602082019050611892600083018461186e565b92915050565b600080fd5b7f4e487b7100000000000000000000000000000000000000000000000000000000600052604160045260246000fd5b6118d582611636565b810181811067ffffffffffffffff821117156118f4576118f361189d565b5b80604052505050565b600061190761156b565b905061191382826118cc565b919050565b600067ffffffffffffffff8211156119335761193261189d565b5b602082029050602081019050919050565b600080fd5b600061195c61195784611918565b6118fd565b9050808382526020820190506020840283018581111561197f5761197e611944565b5b835b818110156119a857806119948882611596565b845260208401935050602081019050611981565b5050509392505050565b600082601f8301126119c7576119c6611898565b5b81356119d7848260208601611949565b91505092915050565b6000602082840312156119f6576119f5611575565b5b600082013567ffffffffffffffff811115611a1457611a1361157a565b5b611a20848285016119b2565b91505092915050565b600081519050919050565b600082825260208201905092915050565b6000819050602082019050919050565b600060c083016000830151611a6d60008601826115d8565b506020830151611a8060208601826115d8565b5060408301518482036040860152611a988282611647565b9150506060830151611aad60608601826115d8565b506080830151611ac060808601826115d8565b5060a0830151611ad360a08601826115d8565b508091505092915050565b6000611aea8383611a55565b905092915050565b6000602082019050919050565b6000611b0a82611a29565b611b148185611a34565b935083602082028501611b2685611a45565b8060005b85811015611b625784840389528151611b438582611ade565b9450611b4e83611af2565b925060208a01995050600181019050611b2a565b50829750879550505050505092915050565b60006020820190508181036000830152611b8e8184611aff565b905092915050565b611b9f81611757565b8114611baa57600080fd5b50565b600081359050611bbc81611b96565b92915050565b60008060408385031215611bd957611bd8611575565b5b6000611be785828601611bad565b9250506020611bf885828601611596565b9150509250929050565b600081519050919050565b600082825260208201905092915050565b6000611c2982611c02565b611c338185611c0d565b9350611c43818560208601611603565b611c4c81611636565b840191505092915050565b60008115159050919050565b611c6c81611c57565b82525050565b6000608083016000830151611c8a60008601826115d8565b506020830151611c9d6020860182611761565b5060408301518482036040860152611cb58282611c1e565b9150506060830151611cca6060860182611c63565b508091505092915050565b60006020820190508181036000830152611cef8184611c72565b905092915050565b600060208284031215611d0d57611d0c611575565b5b6000611d1b84828501611bad565b91505092915050565b600060ff82169050919050565b611d3a81611d24565b82525050565b600082825260208201905092915050565b6000611d5c82611459565b611d668185611d40565b9350611d7183611475565b8060005b83811015611da2578151611d8988826114c6565b9750611d94836114de565b925050600181019050611d75565b5085935050505092915050565b60006101e083016000830151611dc860008601826115d8565b506020830151611ddb60208601826115d8565b506040830151611dee6040860182611c63565b506060830151611e016060860182611c63565b5060808301518482036080860152611e198282611647565b91505060a0830151611e2e60a0860182611d31565b5060c0830151611e4160c08601826115d8565b5060e0830151611e5460e08601826115d8565b50610100830151611e696101008601826115d8565b50610120830151848203610120860152611e838282611647565b915050610140830151611e9a6101408601826114b7565b50610160830151611eaf6101608601826114b7565b50610180830151848203610180860152611ec98282611d51565b9150506101a0830151611ee06101a0860182611d31565b506101c0830151611ef56101c0860182611c63565b508091505092915050565b60006020820190508181036000830152611f1a8184611daf565b905092915050565b7f4e487b7100000000000000000000000000000000000000000000000000000000600052602260045260246000fd5b60006002820490506001821680611f6957607f821691505b602082108103611f7c57611f7b611f22565b5b50919050565b7f4e487b7100000000000000000000000000000000000000000000000000000000600052603260045260246000fd5b7f4e487b7100000000000000000000000000000000000000000000000000000000600052601160045260246000fd5b6000611feb82611425565b91507fffffffffffffffffffffffffffffffffffffffffffffffffffffffffffffffff820361201d5761201c611fb1565b5b600182019050919050565b61203181611757565b82525050565b600060208201905061204c6000830184612028565b92915050565b600061205d82611d24565b915060ff82036120705761206f611fb1565b5b600182019050919050565b61208481611c57565b82525050565b600060408201905061209f600083018561207b565b6120ac602083018461186e565b939250505056fea26469706673582212200611af5f160b54f6f79ad820f85a299bb6d094a6c4d4ecdd51629cf72c2789c264736f6c634300080d0033",
  "devdoc": {
    "kind": "dev",
    "methods": {
      "getArchaeologistProfile(address)": {
        "params": {
          "archaeologist": "The archaeologist account's address"
        },
        "returns": {
          "_0": "the Archaeologist object"
        }
      },
      "getArchaeologistProfileAddressAtIndex(uint256)": {
        "params": {
          "index": "The index of the registered archaeologist"
        },
        "returns": {
          "_0": "address of the archaeologist"
        }
      },
      "getArchaeologistProfileAddresses()": {
        "returns": {
          "_0": "addresses of registered archaeologists"
        }
      },
      "getArchaeologistProfiles(address[])": {
        "params": {
          "addresses": "The list of archaeologist addresses"
        },
        "returns": {
          "_0": "The list of archaeologist profiles"
        }
      },
      "getArchaeologistSarcophagi(address)": {
        "params": {
          "archaeologist": "The address of the archaeologist whose sarcophagi are being returned"
        }
      },
      "getCursedBond(address)": {
        "params": {
          "archaeologist": "The address of the archaeologist whose cursed bond is being returned"
        }
      },
      "getCursedBondPercentage()": {
        "returns": {
          "_0": "The cursed bond percentage - cursedBondPercentage"
        }
      },
      "getEmbalmerClaimWindow()": {
        "returns": {
          "_0": "The embalmer claim window"
        }
      },
      "getEmbalmerSarcophagi(address)": {
        "params": {
          "embalmer": "The address of the embalmer whose sarcophagi are being returned"
        }
      },
      "getExpirationThreshold()": {
        "returns": {
          "_0": "The expiration threshold"
        }
      },
      "getFreeBond(address)": {
        "params": {
          "archaeologist": "The address of the archaeologist whose free bond is being returned"
        }
      },
      "getGracePeriod()": {
        "returns": {
          "_0": "The resurrection grace period"
        }
      },
      "getProtocolFeeBasePercentage()": {
        "returns": {
          "_0": "The protocol fee base percentage - protocolFeeBasePercentage"
        }
      },
      "getRecipientSarcophagi(address)": {
        "params": {
          "recipient": "The address of the recipient whose sarcophagi are being returned"
        }
      },
      "getRewards(address)": {
        "params": {
          "archaeologist": "The address of the archaeologist whose reward is being returned"
        }
      },
      "getSarcophagus(bytes32)": {
        "params": {
          "sarcoId": "The identifier of the sarcophagus being returned"
        }
      },
      "getSarcophagusArchaeologist(bytes32,address)": {
        "params": {
          "archaeologist": "The address of the archaeologist whose data is being returned",
          "sarcoId": "The identifier of the sarcophagus whose data is being returned"
        }
      },
      "getTotalProtocolFees()": {
        "returns": {
          "_0": "The total protocol fees"
        }
      }
    },
    "version": 1
  },
  "userdoc": {
    "kind": "user",
    "methods": {
      "getArchaeologistProfile(address)": {
        "notice": "Given an archaeologist address, return that archaeologist's profile"
      },
      "getArchaeologistProfileAddressAtIndex(uint256)": {
        "notice": "Given an index (of the full archaeologist array), return the archaeologist address at that index"
      },
      "getArchaeologistProfileAddresses()": {
        "notice": "Return the list of registereed archaeologist addresses."
      },
      "getArchaeologistProfiles(address[])": {
        "notice": "Gets archaeologist profiles given a list of archaeologist addresses. If an invalid address is included, simply leaves it out of the list."
      },
      "getArchaeologistSarcophagi(address)": {
        "notice": "Given an archaeologist's address, returns the identifiers of all sarcophagi that the archaeologist has participated in."
      },
      "getCursedBond(address)": {
        "notice": "Returns the amount of cursed bond stored in the contract for an archaeologist."
      },
      "getCursedBondPercentage()": {
        "notice": "Get the cursed bond percentage from the contract."
      },
      "getEmbalmerClaimWindow()": {
        "notice": "Gets the window after end of gracePeriod + resurrectionTime where embalmer can claim remaining bonds from archaeologists that have failed to publish private keys"
      },
      "getEmbalmerSarcophagi(address)": {
        "notice": "Given an embalmer's address, returns the identifiers of all sarcophagi that the embalmer has created."
      },
      "getExpirationThreshold()": {
        "notice": "Gets the expiration threshold after which a sarcophagus must be renegotiated"
      },
      "getFreeBond(address)": {
        "notice": "Returns the amount of free bond stored in the contract for an archaeologist."
      },
      "getGracePeriod()": {
        "notice": "Gets the grace period an archaeologist is given to resurrect a sarcophagus after the resurrection time passes"
      },
      "getProtocolFeeBasePercentage()": {
        "notice": "Get the protocol fee base percentage from the contract."
      },
      "getRecipientSarcophagi(address)": {
        "notice": "Given a recipient's address, returns the identifiers of all sarcophagi that the recipient has participated in."
      },
      "getRewards(address)": {
        "notice": "Returns the amount of rewards stored in the contract for an archaeologist."
      },
      "getSarcophagus(bytes32)": {
        "notice": "Returns data on the sarcophagus with the supplied id includes aggregate data on cursed archaeologists associated with the sarcophagus     - publishedPrivateKeyCount - the total number of private keys published by archaeologists on the sarcophagus     - hasLockedBond - true if archaeologists still have bond locked in the contract for this sarcophagus"
      },
      "getSarcophagusArchaeologist(bytes32,address)": {
        "notice": "Returns the data stored on a sarcophagus for an archaeologist."
      },
      "getTotalProtocolFees()": {
        "notice": "Gets the total protocol fees from the contract."
      }
    },
    "version": 1
  },
  "storageLayout": {
    "storage": [],
    "types": null
  }
}