{
  "address": "0xA51Eb4a44a25C84F12e92E9d7b2154c81DB44E21",
  "abi": [
    {
      "inputs": [
        {
          "internalType": "bool",
          "name": "exists",
          "type": "bool"
        },
        {
          "internalType": "address",
          "name": "archaeologist",
          "type": "address"
        }
      ],
      "name": "ArchaeologistProfileExistsShouldBe",
      "type": "error"
    },
    {
      "inputs": [
        {
          "internalType": "bytes32",
          "name": "sarcoId",
          "type": "bytes32"
        }
      ],
      "name": "SarcophagusDoesNotExist",
      "type": "error"
    },
    {
      "inputs": [
        {
          "internalType": "address",
          "name": "archaeologist",
          "type": "address"
        }
      ],
      "name": "getArchaeologistProfile",
      "outputs": [
        {
          "components": [
            {
              "internalType": "uint256",
              "name": "maximumRewrapInterval",
              "type": "uint256"
            },
            {
              "internalType": "uint256",
              "name": "maximumResurrectionTime",
              "type": "uint256"
            },
            {
              "internalType": "string",
              "name": "peerId",
              "type": "string"
            },
            {
              "internalType": "uint256",
              "name": "minimumDiggingFeePerSecond",
              "type": "uint256"
            },
            {
              "internalType": "uint256",
              "name": "freeBond",
              "type": "uint256"
            },
            {
              "internalType": "uint256",
              "name": "cursedBond",
              "type": "uint256"
            },
            {
              "internalType": "uint256",
              "name": "curseFee",
              "type": "uint256"
            }
          ],
          "internalType": "struct LibTypes.ArchaeologistProfile",
          "name": "",
          "type": "tuple"
        }
      ],
      "stateMutability": "view",
      "type": "function"
    },
    {
      "inputs": [
        {
          "internalType": "uint256",
          "name": "index",
          "type": "uint256"
        }
      ],
      "name": "getArchaeologistProfileAddressAtIndex",
      "outputs": [
        {
          "internalType": "address",
          "name": "",
          "type": "address"
        }
      ],
      "stateMutability": "view",
      "type": "function"
    },
    {
      "inputs": [],
      "name": "getArchaeologistProfileAddresses",
      "outputs": [
        {
          "internalType": "address[]",
          "name": "",
          "type": "address[]"
        }
      ],
      "stateMutability": "view",
      "type": "function"
    },
    {
      "inputs": [
        {
          "internalType": "address[]",
          "name": "addresses",
          "type": "address[]"
        }
      ],
      "name": "getArchaeologistProfiles",
      "outputs": [
        {
          "components": [
            {
              "internalType": "uint256",
              "name": "maximumRewrapInterval",
              "type": "uint256"
            },
            {
              "internalType": "uint256",
              "name": "maximumResurrectionTime",
              "type": "uint256"
            },
            {
              "internalType": "string",
              "name": "peerId",
              "type": "string"
            },
            {
              "internalType": "uint256",
              "name": "minimumDiggingFeePerSecond",
              "type": "uint256"
            },
            {
              "internalType": "uint256",
              "name": "freeBond",
              "type": "uint256"
            },
            {
              "internalType": "uint256",
              "name": "cursedBond",
              "type": "uint256"
            },
            {
              "internalType": "uint256",
              "name": "curseFee",
              "type": "uint256"
            }
          ],
          "internalType": "struct LibTypes.ArchaeologistProfile[]",
          "name": "",
          "type": "tuple[]"
        }
      ],
      "stateMutability": "view",
      "type": "function"
    },
    {
      "inputs": [
        {
          "internalType": "address",
          "name": "archaeologist",
          "type": "address"
        }
      ],
      "name": "getArchaeologistSarcophagi",
      "outputs": [
        {
          "internalType": "bytes32[]",
          "name": "",
          "type": "bytes32[]"
        }
      ],
      "stateMutability": "view",
      "type": "function"
    },
    {
      "inputs": [
        {
          "internalType": "address",
          "name": "archaeologist",
          "type": "address"
        }
      ],
      "name": "getCursedBond",
      "outputs": [
        {
          "internalType": "uint256",
          "name": "",
          "type": "uint256"
        }
      ],
      "stateMutability": "view",
      "type": "function"
    },
    {
      "inputs": [],
      "name": "getCursedBondPercentage",
      "outputs": [
        {
          "internalType": "uint256",
          "name": "",
          "type": "uint256"
        }
      ],
      "stateMutability": "view",
      "type": "function"
    },
    {
      "inputs": [],
      "name": "getEmbalmerClaimWindow",
      "outputs": [
        {
          "internalType": "uint256",
          "name": "",
          "type": "uint256"
        }
      ],
      "stateMutability": "view",
      "type": "function"
    },
    {
      "inputs": [
        {
          "internalType": "address",
          "name": "embalmer",
          "type": "address"
        }
      ],
      "name": "getEmbalmerSarcophagi",
      "outputs": [
        {
          "internalType": "bytes32[]",
          "name": "",
          "type": "bytes32[]"
        }
      ],
      "stateMutability": "view",
      "type": "function"
    },
    {
      "inputs": [],
      "name": "getExpirationThreshold",
      "outputs": [
        {
          "internalType": "uint256",
          "name": "",
          "type": "uint256"
        }
      ],
      "stateMutability": "view",
      "type": "function"
    },
    {
      "inputs": [
        {
          "internalType": "address",
          "name": "archaeologist",
          "type": "address"
        }
      ],
      "name": "getFreeBond",
      "outputs": [
        {
          "internalType": "uint256",
          "name": "",
          "type": "uint256"
        }
      ],
      "stateMutability": "view",
      "type": "function"
    },
    {
      "inputs": [],
      "name": "getGracePeriod",
      "outputs": [
        {
          "internalType": "uint256",
          "name": "",
          "type": "uint256"
        }
      ],
      "stateMutability": "view",
      "type": "function"
    },
    {
      "inputs": [],
      "name": "getProtocolFeeBasePercentage",
      "outputs": [
        {
          "internalType": "uint256",
          "name": "",
          "type": "uint256"
        }
      ],
      "stateMutability": "view",
      "type": "function"
    },
    {
      "inputs": [
        {
          "internalType": "address",
          "name": "recipient",
          "type": "address"
        }
      ],
      "name": "getRecipientSarcophagi",
      "outputs": [
        {
          "internalType": "bytes32[]",
          "name": "",
          "type": "bytes32[]"
        }
      ],
      "stateMutability": "view",
      "type": "function"
    },
    {
      "inputs": [
        {
          "internalType": "address",
          "name": "archaeologist",
          "type": "address"
        }
      ],
      "name": "getRewards",
      "outputs": [
        {
          "internalType": "uint256",
          "name": "",
          "type": "uint256"
        }
      ],
      "stateMutability": "view",
      "type": "function"
    },
    {
      "inputs": [
        {
          "internalType": "bytes32",
          "name": "sarcoId",
          "type": "bytes32"
        }
      ],
      "name": "getSarcophagus",
      "outputs": [
        {
          "components": [
            {
              "internalType": "uint256",
              "name": "resurrectionTime",
              "type": "uint256"
            },
            {
              "internalType": "uint256",
              "name": "previousRewrapTime",
              "type": "uint256"
            },
            {
              "internalType": "bool",
              "name": "isCompromised",
              "type": "bool"
            },
            {
              "internalType": "bool",
              "name": "isCleaned",
              "type": "bool"
            },
            {
              "internalType": "string",
              "name": "name",
              "type": "string"
            },
            {
              "internalType": "uint8",
              "name": "threshold",
              "type": "uint8"
            },
            {
              "internalType": "uint256",
              "name": "maximumRewrapInterval",
              "type": "uint256"
            },
            {
              "internalType": "uint256",
              "name": "maximumResurrectionTime",
              "type": "uint256"
            },
            {
              "internalType": "uint256",
              "name": "cursedBondPercentage",
              "type": "uint256"
            },
            {
              "internalType": "string",
              "name": "arweaveTxId",
              "type": "string"
            },
            {
              "internalType": "address",
              "name": "embalmerAddress",
              "type": "address"
            },
            {
              "internalType": "address",
              "name": "recipientAddress",
              "type": "address"
            },
            {
              "internalType": "address[]",
              "name": "archaeologistAddresses",
              "type": "address[]"
            },
            {
              "internalType": "uint8",
              "name": "publishedPrivateKeyCount",
              "type": "uint8"
            },
            {
              "internalType": "bool",
              "name": "hasLockedBond",
              "type": "bool"
            }
          ],
          "internalType": "struct ViewStateFacet.SarcophagusResponse",
          "name": "",
          "type": "tuple"
        }
      ],
      "stateMutability": "view",
      "type": "function"
    },
    {
      "inputs": [
        {
          "internalType": "bytes32",
          "name": "sarcoId",
          "type": "bytes32"
        },
        {
          "internalType": "address",
          "name": "archaeologist",
          "type": "address"
        }
      ],
      "name": "getSarcophagusArchaeologist",
      "outputs": [
        {
          "components": [
            {
              "internalType": "uint256",
              "name": "diggingFeePerSecond",
              "type": "uint256"
            },
            {
              "internalType": "bytes32",
              "name": "privateKey",
              "type": "bytes32"
            },
            {
              "internalType": "bytes",
              "name": "publicKey",
              "type": "bytes"
            },
            {
              "internalType": "bool",
              "name": "isAccused",
              "type": "bool"
            },
            {
              "internalType": "uint256",
              "name": "curseFee",
              "type": "uint256"
            }
          ],
          "internalType": "struct LibTypes.CursedArchaeologist",
          "name": "",
          "type": "tuple"
        }
      ],
      "stateMutability": "view",
      "type": "function"
    },
    {
      "inputs": [],
      "name": "getTotalProtocolFees",
      "outputs": [
        {
          "internalType": "uint256",
          "name": "",
          "type": "uint256"
        }
      ],
      "stateMutability": "view",
      "type": "function"
    }
  ],
  "transactionHash": "0x3580bfbb07bfca35430835127310e73292c105512db298dbb4d9e582ddf3ec36",
  "args": [],
  "numDeployments": 5,
  "solcInputHash": "81ad1b682c45487f00525ea51ba5b3ac",
  "bytecode": "0x608060405234801561001057600080fd5b5061214e806100206000396000f3fe608060405234801561001057600080fd5b50600436106101165760003560e01c80639c545639116100a2578063dbd1838811610071578063dbd1838814610331578063dc231f431461034f578063dcfcb9011461037f578063de116f061461039d578063ef60e4e7146103cd57610116565b80639c545639146102955780639fdaded1146102b3578063a9328dcc146102d1578063c34e9bff1461030157610116565b806357babbaf116100e957806357babbaf146101b757806379ee54f7146101e75780637aa9fd2f1461021757806387927ce6146102355780638fbd55d21461026557610116565b806331baea671461011b5780633fbb89301461013957806342e10bc8146101575780634d0b676714610187575b600080fd5b6101236103fd565b604051610130919061146a565b60405180910390f35b610141610415565b60405161014e9190611575565b60405180910390f35b610171600480360381019061016c91906115d7565b6104b2565b60405161017e9190611748565b60405180910390f35b6101a1600480360381019061019c91906115d7565b6105f1565b6040516101ae9190611832565b60405180910390f35b6101d160048036038101906101cc9190611880565b610697565b6040516101de91906118bc565b60405180910390f35b61020160048036038101906101fc91906115d7565b6106ed565b60405161020e919061146a565b60405180910390f35b61021f610744565b60405161022c919061146a565b60405180910390f35b61024f600480360381019061024a91906115d7565b61075c565b60405161025c919061146a565b60405180910390f35b61027f600480360381019061027a91906115d7565b6107b6565b60405161028c919061146a565b60405180910390f35b61029d610810565b6040516102aa919061146a565b60405180910390f35b6102bb610828565b6040516102c8919061146a565b60405180910390f35b6102eb60048036038101906102e69190611a1f565b610840565b6040516102f89190611bc6565b60405180910390f35b61031b600480360381019061031691906115d7565b610a8b565b6040516103289190611832565b60405180910390f35b610339610b31565b604051610346919061146a565b60405180910390f35b61036960048036038101906103649190611c14565b610b49565b6040516103769190611d3a565b60405180910390f35b610387610c91565b604051610394919061146a565b60405180910390f35b6103b760048036038101906103b29190611d5c565b610ca9565b6040516103c49190611f65565b60405180910390f35b6103e760048036038101906103e291906115d7565b6111c3565b6040516103f49190611832565b60405180910390f35b600080610408611269565b9050806006015491505090565b60606000610421611269565b9050806007018054806020026020016040519081016040528092919081815260200182805480156104a757602002820191906000526020600020905b8160009054906101000a900473ffffffffffffffffffffffffffffffffffffffff1673ffffffffffffffffffffffffffffffffffffffff168152602001906001019080831161045d575b505050505091505090565b6104ba611332565b60006104c4611269565b90506104cf83611296565b80600d0160008473ffffffffffffffffffffffffffffffffffffffff1673ffffffffffffffffffffffffffffffffffffffff1681526020019081526020016000206040518060e0016040529081600082015481526020016001820154815260200160028201805461053f90611fb6565b80601f016020809104026020016040519081016040528092919081815260200182805461056b90611fb6565b80156105b85780601f1061058d576101008083540402835291602001916105b8565b820191906000526020600020905b81548152906001019060200180831161059b57829003601f168201915b50505050508152602001600382015481526020016004820154815260200160058201548152602001600682015481525050915050919050565b606060006105fd611269565b905080600a0160008473ffffffffffffffffffffffffffffffffffffffff1673ffffffffffffffffffffffffffffffffffffffff16815260200190815260200160002080548060200260200160405190810160405280929190818152602001828054801561068a57602002820191906000526020600020905b815481526020019060010190808311610676575b5050505050915050919050565b6000806106a2611269565b90508060070183815481106106ba576106b9611fe7565b5b9060005260206000200160009054906101000a900473ffffffffffffffffffffffffffffffffffffffff16915050919050565b6000806106f8611269565b905080600e0160008473ffffffffffffffffffffffffffffffffffffffff1673ffffffffffffffffffffffffffffffffffffffff16815260200190815260200160002054915050919050565b60008061074f611269565b9050806005015491505090565b600080610767611269565b905080600d0160008473ffffffffffffffffffffffffffffffffffffffff1673ffffffffffffffffffffffffffffffffffffffff16815260200190815260200160002060050154915050919050565b6000806107c1611269565b905080600d0160008473ffffffffffffffffffffffffffffffffffffffff1673ffffffffffffffffffffffffffffffffffffffff16815260200190815260200160002060040154915050919050565b60008061081b611269565b9050806001015491505090565b600080610833611269565b9050806002015491505090565b6060600061084c611269565b90506000835167ffffffffffffffff81111561086b5761086a6118dc565b5b6040519080825280602002602001820160405280156108a457816020015b610891611332565b8152602001906001900390816108895790505b50905060005b8451811015610a8057600083600d0160008784815181106108ce576108cd611fe7565b5b602002602001015173ffffffffffffffffffffffffffffffffffffffff1673ffffffffffffffffffffffffffffffffffffffff168152602001908152602001600020600001540315610a6d5782600d01600086838151811061093357610932611fe7565b5b602002602001015173ffffffffffffffffffffffffffffffffffffffff1673ffffffffffffffffffffffffffffffffffffffff1681526020019081526020016000206040518060e001604052908160008201548152602001600182015481526020016002820180546109a490611fb6565b80601f01602080910402602001604051908101604052809291908181526020018280546109d090611fb6565b8015610a1d5780601f106109f257610100808354040283529160200191610a1d565b820191906000526020600020905b815481529060010190602001808311610a0057829003601f168201915b50505050508152602001600382015481526020016004820154815260200160058201548152602001600682015481525050828281518110610a6157610a60611fe7565b5b60200260200101819052505b8080610a7890612045565b9150506108aa565b508092505050919050565b60606000610a97611269565b90508060080160008473ffffffffffffffffffffffffffffffffffffffff1673ffffffffffffffffffffffffffffffffffffffff168152602001908152602001600020805480602002602001604051908101604052809291908181526020018280548015610b2457602002820191906000526020600020905b815481526020019060010190808311610b10575b5050505050915050919050565b600080610b3c611269565b9050806004015491505090565b610b5161136f565b6000610b5b611269565b905080600c016000858152602001908152602001600020600a0160008473ffffffffffffffffffffffffffffffffffffffff1673ffffffffffffffffffffffffffffffffffffffff1681526020019081526020016000206040518060a00160405290816000820154815260200160018201548152602001600282018054610be190611fb6565b80601f0160208091040260200160405190810160405280929190818152602001828054610c0d90611fb6565b8015610c5a5780601f10610c2f57610100808354040283529160200191610c5a565b820191906000526020600020905b815481529060010190602001808311610c3d57829003601f168201915b505050505081526020016003820160009054906101000a900460ff1615151515815260200160048201548152505091505092915050565b600080610c9c611269565b9050806003015491505090565b610cb16113a3565b6000610cbb611269565b9050600081600c01600085815260200190815260200160002090506000816000015403610d1f57836040517f018da688000000000000000000000000000000000000000000000000000000008152600401610d16919061209c565b60405180910390fd5b60008060005b8360090180549050811015610eec576000801b84600a016000866009018481548110610d5457610d53611fe7565b5b9060005260206000200160009054906101000a900473ffffffffffffffffffffffffffffffffffffffff1673ffffffffffffffffffffffffffffffffffffffff1673ffffffffffffffffffffffffffffffffffffffff1681526020019081526020016000206001015414610dd5578280610dcd906120b7565b935050610ed9565b83600a016000856009018381548110610df157610df0611fe7565b5b9060005260206000200160009054906101000a900473ffffffffffffffffffffffffffffffffffffffff1673ffffffffffffffffffffffffffffffffffffffff1673ffffffffffffffffffffffffffffffffffffffff16815260200190815260200160002060030160009054906101000a900460ff16158015610e8357508360020160009054906101000a900460ff16155b8015610e9e57508360020160019054906101000a900460ff16155b8015610ece57507fffffffffffffffffffffffffffffffffffffffffffffffffffffffffffffffff846000015414155b15610ed857600191505b5b8080610ee490612045565b915050610d25565b50604051806101e0016040528084600001548152602001846001015481526020018460020160009054906101000a900460ff16151581526020018460020160019054906101000a900460ff1615158152602001846003018054610f4e90611fb6565b80601f0160208091040260200160405190810160405280929190818152602001828054610f7a90611fb6565b8015610fc75780601f10610f9c57610100808354040283529160200191610fc7565b820191906000526020600020905b815481529060010190602001808311610faa57829003601f168201915b505050505081526020018460020160039054906101000a900460ff1660ff168152602001846004015481526020018460050154815260200184600b0154815260200184600601805461101890611fb6565b80601f016020809104026020016040519081016040528092919081815260200182805461104490611fb6565b80156110915780601f1061106657610100808354040283529160200191611091565b820191906000526020600020905b81548152906001019060200180831161107457829003601f168201915b505050505081526020018460070160009054906101000a900473ffffffffffffffffffffffffffffffffffffffff1673ffffffffffffffffffffffffffffffffffffffff1681526020018460080160009054906101000a900473ffffffffffffffffffffffffffffffffffffffff1673ffffffffffffffffffffffffffffffffffffffff1681526020018460090180548060200260200160405190810160405280929190818152602001828054801561119f57602002820191906000526020600020905b8160009054906101000a900473ffffffffffffffffffffffffffffffffffffffff1673ffffffffffffffffffffffffffffffffffffffff1681526020019060010190808311611155575b505050505081526020018360ff168152602001821515815250945050505050919050565b606060006111cf611269565b90508060090160008473ffffffffffffffffffffffffffffffffffffffff1673ffffffffffffffffffffffffffffffffffffffff16815260200190815260200160002080548060200260200160405190810160405280929190818152602001828054801561125c57602002820191906000526020600020905b815481526020019060010190808311611248575b5050505050915050919050565b6000807fa223312a216e34e17ad102c9d81ce3c0d9a16b0fce2a477c118cde325d32220690508091505090565b60006112a0611269565b9050600081600d0160008473ffffffffffffffffffffffffffffffffffffffff1673ffffffffffffffffffffffffffffffffffffffff168152602001908152602001600020600001540361132e576001826040517f2eeb35710000000000000000000000000000000000000000000000000000000081526004016113259291906120ef565b60405180910390fd5b5050565b6040518060e00160405280600081526020016000815260200160608152602001600081526020016000815260200160008152602001600081525090565b6040518060a00160405280600081526020016000801916815260200160608152602001600015158152602001600081525090565b604051806101e00160405280600081526020016000815260200160001515815260200160001515815260200160608152602001600060ff16815260200160008152602001600081526020016000815260200160608152602001600073ffffffffffffffffffffffffffffffffffffffff168152602001600073ffffffffffffffffffffffffffffffffffffffff16815260200160608152602001600060ff1681526020016000151581525090565b6000819050919050565b61146481611451565b82525050565b600060208201905061147f600083018461145b565b92915050565b600081519050919050565b600082825260208201905092915050565b6000819050602082019050919050565b600073ffffffffffffffffffffffffffffffffffffffff82169050919050565b60006114dc826114b1565b9050919050565b6114ec816114d1565b82525050565b60006114fe83836114e3565b60208301905092915050565b6000602082019050919050565b600061152282611485565b61152c8185611490565b9350611537836114a1565b8060005b8381101561156857815161154f88826114f2565b975061155a8361150a565b92505060018101905061153b565b5085935050505092915050565b6000602082019050818103600083015261158f8184611517565b905092915050565b6000604051905090565b600080fd5b600080fd5b6115b4816114d1565b81146115bf57600080fd5b50565b6000813590506115d1816115ab565b92915050565b6000602082840312156115ed576115ec6115a1565b5b60006115fb848285016115c2565b91505092915050565b61160d81611451565b82525050565b600081519050919050565b600082825260208201905092915050565b60005b8381101561164d578082015181840152602081019050611632565b8381111561165c576000848401525b50505050565b6000601f19601f8301169050919050565b600061167e82611613565b611688818561161e565b935061169881856020860161162f565b6116a181611662565b840191505092915050565b600060e0830160008301516116c46000860182611604565b5060208301516116d76020860182611604565b50604083015184820360408601526116ef8282611673565b91505060608301516117046060860182611604565b5060808301516117176080860182611604565b5060a083015161172a60a0860182611604565b5060c083015161173d60c0860182611604565b508091505092915050565b6000602082019050818103600083015261176281846116ac565b905092915050565b600081519050919050565b600082825260208201905092915050565b6000819050602082019050919050565b6000819050919050565b6117a981611796565b82525050565b60006117bb83836117a0565b60208301905092915050565b6000602082019050919050565b60006117df8261176a565b6117e98185611775565b93506117f483611786565b8060005b8381101561182557815161180c88826117af565b9750611817836117c7565b9250506001810190506117f8565b5085935050505092915050565b6000602082019050818103600083015261184c81846117d4565b905092915050565b61185d81611451565b811461186857600080fd5b50565b60008135905061187a81611854565b92915050565b600060208284031215611896576118956115a1565b5b60006118a48482850161186b565b91505092915050565b6118b6816114d1565b82525050565b60006020820190506118d160008301846118ad565b92915050565b600080fd5b7f4e487b7100000000000000000000000000000000000000000000000000000000600052604160045260246000fd5b61191482611662565b810181811067ffffffffffffffff82111715611933576119326118dc565b5b80604052505050565b6000611946611597565b9050611952828261190b565b919050565b600067ffffffffffffffff821115611972576119716118dc565b5b602082029050602081019050919050565b600080fd5b600061199b61199684611957565b61193c565b905080838252602082019050602084028301858111156119be576119bd611983565b5b835b818110156119e757806119d388826115c2565b8452602084019350506020810190506119c0565b5050509392505050565b600082601f830112611a0657611a056118d7565b5b8135611a16848260208601611988565b91505092915050565b600060208284031215611a3557611a346115a1565b5b600082013567ffffffffffffffff811115611a5357611a526115a6565b5b611a5f848285016119f1565b91505092915050565b600081519050919050565b600082825260208201905092915050565b6000819050602082019050919050565b600060e083016000830151611aac6000860182611604565b506020830151611abf6020860182611604565b5060408301518482036040860152611ad78282611673565b9150506060830151611aec6060860182611604565b506080830151611aff6080860182611604565b5060a0830151611b1260a0860182611604565b5060c0830151611b2560c0860182611604565b508091505092915050565b6000611b3c8383611a94565b905092915050565b6000602082019050919050565b6000611b5c82611a68565b611b668185611a73565b935083602082028501611b7885611a84565b8060005b85811015611bb45784840389528151611b958582611b30565b9450611ba083611b44565b925060208a01995050600181019050611b7c565b50829750879550505050505092915050565b60006020820190508181036000830152611be08184611b51565b905092915050565b611bf181611796565b8114611bfc57600080fd5b50565b600081359050611c0e81611be8565b92915050565b60008060408385031215611c2b57611c2a6115a1565b5b6000611c3985828601611bff565b9250506020611c4a858286016115c2565b9150509250929050565b600081519050919050565b600082825260208201905092915050565b6000611c7b82611c54565b611c858185611c5f565b9350611c9581856020860161162f565b611c9e81611662565b840191505092915050565b60008115159050919050565b611cbe81611ca9565b82525050565b600060a083016000830151611cdc6000860182611604565b506020830151611cef60208601826117a0565b5060408301518482036040860152611d078282611c70565b9150506060830151611d1c6060860182611cb5565b506080830151611d2f6080860182611604565b508091505092915050565b60006020820190508181036000830152611d548184611cc4565b905092915050565b600060208284031215611d7257611d716115a1565b5b6000611d8084828501611bff565b91505092915050565b600060ff82169050919050565b611d9f81611d89565b82525050565b600082825260208201905092915050565b6000611dc182611485565b611dcb8185611da5565b9350611dd6836114a1565b8060005b83811015611e07578151611dee88826114f2565b9750611df98361150a565b925050600181019050611dda565b5085935050505092915050565b60006101e083016000830151611e2d6000860182611604565b506020830151611e406020860182611604565b506040830151611e536040860182611cb5565b506060830151611e666060860182611cb5565b5060808301518482036080860152611e7e8282611673565b91505060a0830151611e9360a0860182611d96565b5060c0830151611ea660c0860182611604565b5060e0830151611eb960e0860182611604565b50610100830151611ece610100860182611604565b50610120830151848203610120860152611ee88282611673565b915050610140830151611eff6101408601826114e3565b50610160830151611f146101608601826114e3565b50610180830151848203610180860152611f2e8282611db6565b9150506101a0830151611f456101a0860182611d96565b506101c0830151611f5a6101c0860182611cb5565b508091505092915050565b60006020820190508181036000830152611f7f8184611e14565b905092915050565b7f4e487b7100000000000000000000000000000000000000000000000000000000600052602260045260246000fd5b60006002820490506001821680611fce57607f821691505b602082108103611fe157611fe0611f87565b5b50919050565b7f4e487b7100000000000000000000000000000000000000000000000000000000600052603260045260246000fd5b7f4e487b7100000000000000000000000000000000000000000000000000000000600052601160045260246000fd5b600061205082611451565b91507fffffffffffffffffffffffffffffffffffffffffffffffffffffffffffffffff820361208257612081612016565b5b600182019050919050565b61209681611796565b82525050565b60006020820190506120b1600083018461208d565b92915050565b60006120c282611d89565b915060ff82036120d5576120d4612016565b5b600182019050919050565b6120e981611ca9565b82525050565b600060408201905061210460008301856120e0565b61211160208301846118ad565b939250505056fea26469706673582212209cf4d64e7286d862f8622ea9b946a7e04218a63a1b46bb44368f9855e17c1f9464736f6c634300080d0033",
  "devdoc": {
    "kind": "dev",
    "methods": {
      "getArchaeologistProfile(address)": {
        "params": {
          "archaeologist": "The archaeologist account's address"
        },
        "returns": {
          "_0": "the Archaeologist object"
        }
      },
      "getArchaeologistProfileAddressAtIndex(uint256)": {
        "params": {
          "index": "The index of the registered archaeologist"
        },
        "returns": {
          "_0": "address of the archaeologist"
        }
      },
      "getArchaeologistProfileAddresses()": {
        "returns": {
          "_0": "addresses of registered archaeologists"
        }
      },
      "getArchaeologistProfiles(address[])": {
        "params": {
          "addresses": "The list of archaeologist addresses"
        },
        "returns": {
          "_0": "The list of archaeologist profiles"
        }
      },
      "getArchaeologistSarcophagi(address)": {
        "params": {
          "archaeologist": "The address of the archaeologist whose sarcophagi are being returned"
        }
      },
      "getCursedBond(address)": {
        "params": {
          "archaeologist": "The address of the archaeologist whose cursed bond is being returned"
        }
      },
      "getCursedBondPercentage()": {
        "returns": {
          "_0": "The cursed bond percentage - cursedBondPercentage"
        }
      },
      "getEmbalmerClaimWindow()": {
        "returns": {
          "_0": "The embalmer claim window"
        }
      },
      "getEmbalmerSarcophagi(address)": {
        "params": {
          "embalmer": "The address of the embalmer whose sarcophagi are being returned"
        }
      },
      "getExpirationThreshold()": {
        "returns": {
          "_0": "The expiration threshold"
        }
      },
      "getFreeBond(address)": {
        "params": {
          "archaeologist": "The address of the archaeologist whose free bond is being returned"
        }
      },
      "getGracePeriod()": {
        "returns": {
          "_0": "The resurrection grace period"
        }
      },
      "getProtocolFeeBasePercentage()": {
        "returns": {
          "_0": "The protocol fee base percentage - protocolFeeBasePercentage"
        }
      },
      "getRecipientSarcophagi(address)": {
        "params": {
          "recipient": "The address of the recipient whose sarcophagi are being returned"
        }
      },
      "getRewards(address)": {
        "params": {
          "archaeologist": "The address of the archaeologist whose reward is being returned"
        }
      },
      "getSarcophagus(bytes32)": {
        "params": {
          "sarcoId": "The identifier of the sarcophagus being returned"
        }
      },
      "getSarcophagusArchaeologist(bytes32,address)": {
        "params": {
          "archaeologist": "The address of the archaeologist whose data is being returned",
          "sarcoId": "The identifier of the sarcophagus whose data is being returned"
        }
      },
      "getTotalProtocolFees()": {
        "returns": {
          "_0": "The total protocol fees"
        }
      }
    },
    "version": 1
  },
  "userdoc": {
    "kind": "user",
    "methods": {
      "getArchaeologistProfile(address)": {
        "notice": "Given an archaeologist address, return that archaeologist's profile"
      },
      "getArchaeologistProfileAddressAtIndex(uint256)": {
        "notice": "Given an index (of the full archaeologist array), return the archaeologist address at that index"
      },
      "getArchaeologistProfileAddresses()": {
        "notice": "Return the list of registereed archaeologist addresses."
      },
      "getArchaeologistProfiles(address[])": {
        "notice": "Gets archaeologist profiles given a list of archaeologist addresses. If an invalid address is included, simply leaves it out of the list."
      },
      "getArchaeologistSarcophagi(address)": {
        "notice": "Given an archaeologist's address, returns the identifiers of all sarcophagi that the archaeologist has participated in."
      },
      "getCursedBond(address)": {
        "notice": "Returns the amount of cursed bond stored in the contract for an archaeologist."
      },
      "getCursedBondPercentage()": {
        "notice": "Get the cursed bond percentage from the contract."
      },
      "getEmbalmerClaimWindow()": {
        "notice": "Gets the window after end of gracePeriod + resurrectionTime where embalmer can claim remaining bonds from archaeologists that have failed to publish private keys"
      },
      "getEmbalmerSarcophagi(address)": {
        "notice": "Given an embalmer's address, returns the identifiers of all sarcophagi that the embalmer has created."
      },
      "getExpirationThreshold()": {
        "notice": "Gets the expiration threshold after which a sarcophagus must be renegotiated"
      },
      "getFreeBond(address)": {
        "notice": "Returns the amount of free bond stored in the contract for an archaeologist."
      },
      "getGracePeriod()": {
        "notice": "Gets the grace period an archaeologist is given to resurrect a sarcophagus after the resurrection time passes"
      },
      "getProtocolFeeBasePercentage()": {
        "notice": "Get the protocol fee base percentage from the contract."
      },
      "getRecipientSarcophagi(address)": {
        "notice": "Given a recipient's address, returns the identifiers of all sarcophagi that the recipient has participated in."
      },
      "getRewards(address)": {
        "notice": "Returns the amount of rewards stored in the contract for an archaeologist."
      },
      "getSarcophagus(bytes32)": {
        "notice": "Returns data on the sarcophagus with the supplied id includes aggregate data on cursed archaeologists associated with the sarcophagus     - publishedPrivateKeyCount - the total number of private keys published by archaeologists on the sarcophagus     - hasLockedBond - true if archaeologists still have bond locked in the contract for this sarcophagus"
      },
      "getSarcophagusArchaeologist(bytes32,address)": {
        "notice": "Returns the data stored on a sarcophagus for an archaeologist."
      },
      "getTotalProtocolFees()": {
        "notice": "Gets the total protocol fees from the contract."
      }
    },
    "version": 1
  },
  "storageLayout": {
    "storage": [],
    "types": null
  }
}